{
  "contracts/LaunchpadPool.sol": {
    "BeamStarterLaunchPad": {
      "abi": [
        {
          "inputs": [
            {
              "internalType": "address",
              "name": "_bstr",
              "type": "address"
            },
            {
              "internalType": "address",
              "name": "_reward",
              "type": "address"
            }
          ],
          "stateMutability": "nonpayable",
          "type": "constructor"
        },
        {
          "anonymous": false,
          "inputs": [
            {
              "indexed": true,
              "internalType": "address",
              "name": "tokenAddress",
              "type": "address"
            },
            {
              "indexed": true,
              "internalType": "address",
              "name": "owner",
              "type": "address"
            },
            {
              "indexed": false,
              "internalType": "uint256",
              "name": "value",
              "type": "uint256"
            }
          ],
          "name": "AddPool",
          "type": "event"
        },
        {
          "anonymous": false,
          "inputs": [
            {
              "indexed": true,
              "internalType": "address",
              "name": "tokenAddress",
              "type": "address"
            },
            {
              "indexed": true,
              "internalType": "address",
              "name": "account",
              "type": "address"
            },
            {
              "indexed": false,
              "internalType": "uint256",
              "name": "value",
              "type": "uint256"
            }
          ],
          "name": "Buy",
          "type": "event"
        },
        {
          "anonymous": false,
          "inputs": [
            {
              "indexed": true,
              "internalType": "address",
              "name": "previousOwner",
              "type": "address"
            },
            {
              "indexed": true,
              "internalType": "address",
              "name": "newOwner",
              "type": "address"
            }
          ],
          "name": "OwnershipTransferred",
          "type": "event"
        },
        {
          "anonymous": false,
          "inputs": [
            {
              "indexed": true,
              "internalType": "address",
              "name": "tokenAddress",
              "type": "address"
            },
            {
              "indexed": true,
              "internalType": "address",
              "name": "rewardAddress",
              "type": "address"
            },
            {
              "indexed": false,
              "internalType": "uint256",
              "name": "value",
              "type": "uint256"
            }
          ],
          "name": "Withdraw",
          "type": "event"
        },
        {
          "inputs": [],
          "name": "NAME",
          "outputs": [
            {
              "internalType": "string",
              "name": "",
              "type": "string"
            }
          ],
          "stateMutability": "view",
          "type": "function"
        },
        {
          "inputs": [
            {
              "internalType": "address",
              "name": "_tokenAddress",
              "type": "address"
            },
            {
              "internalType": "address",
              "name": "_receiveToken",
              "type": "address"
            },
            {
              "internalType": "address",
              "name": "_receiveWallet",
              "type": "address"
            },
            {
              "internalType": "uint256",
              "name": "_startTime",
              "type": "uint256"
            },
            {
              "internalType": "uint256",
              "name": "_endTime",
              "type": "uint256"
            },
            {
              "internalType": "uint256",
              "name": "_minPurchase",
              "type": "uint256"
            },
            {
              "internalType": "uint256",
              "name": "_maxPurchase",
              "type": "uint256"
            },
            {
              "internalType": "uint256",
              "name": "_totalToken",
              "type": "uint256"
            },
            {
              "internalType": "uint256",
              "name": "_price",
              "type": "uint256"
            },
            {
              "internalType": "uint256",
              "name": "_tier",
              "type": "uint256"
            }
          ],
          "name": "addPool",
          "outputs": [],
          "stateMutability": "nonpayable",
          "type": "function"
        },
        {
          "inputs": [],
          "name": "bstr",
          "outputs": [
            {
              "internalType": "address",
              "name": "",
              "type": "address"
            }
          ],
          "stateMutability": "view",
          "type": "function"
        },
        {
          "inputs": [
            {
              "internalType": "address",
              "name": "_token",
              "type": "address"
            },
            {
              "internalType": "uint256",
              "name": "_quantity",
              "type": "uint256"
            }
          ],
          "name": "buy",
          "outputs": [],
          "stateMutability": "payable",
          "type": "function"
        },
        {
          "inputs": [
            {
              "internalType": "address",
              "name": "_token",
              "type": "address"
            }
          ],
          "name": "getPoolInfo",
          "outputs": [
            {
              "components": [
                {
                  "internalType": "address",
                  "name": "tokenOwner",
                  "type": "address"
                },
                {
                  "internalType": "address",
                  "name": "tokenAddress",
                  "type": "address"
                },
                {
                  "internalType": "address",
                  "name": "receiveToken",
                  "type": "address"
                },
                {
                  "internalType": "address",
                  "name": "receiveWallet",
                  "type": "address"
                },
                {
                  "internalType": "uint256",
                  "name": "startTime",
                  "type": "uint256"
                },
                {
                  "internalType": "uint256",
                  "name": "endTime",
                  "type": "uint256"
                },
                {
                  "internalType": "uint256",
                  "name": "closeTime",
                  "type": "uint256"
                },
                {
                  "internalType": "uint256",
                  "name": "minPurchase",
                  "type": "uint256"
                },
                {
                  "internalType": "uint256",
                  "name": "maxPurchase",
                  "type": "uint256"
                },
                {
                  "internalType": "uint256",
                  "name": "totalToken",
                  "type": "uint256"
                },
                {
                  "internalType": "uint256",
                  "name": "totalSold",
                  "type": "uint256"
                },
                {
                  "internalType": "uint256",
                  "name": "price",
                  "type": "uint256"
                },
                {
                  "internalType": "uint256",
                  "name": "tier",
                  "type": "uint256"
                },
                {
                  "internalType": "uint256",
                  "name": "withdrawTime",
                  "type": "uint256"
                }
              ],
              "internalType": "struct BeamStarterLaunchPad.IDOPool",
              "name": "",
              "type": "tuple"
            }
          ],
          "stateMutability": "view",
          "type": "function"
        },
        {
          "inputs": [
            {
              "internalType": "address",
              "name": "_token",
              "type": "address"
            }
          ],
          "name": "getRemainToken",
          "outputs": [
            {
              "internalType": "uint256",
              "name": "",
              "type": "uint256"
            }
          ],
          "stateMutability": "view",
          "type": "function"
        },
        {
          "inputs": [
            {
              "internalType": "address",
              "name": "_token",
              "type": "address"
            }
          ],
          "name": "getTokenActiveStatus",
          "outputs": [
            {
              "internalType": "uint256",
              "name": "",
              "type": "uint256"
            }
          ],
          "stateMutability": "view",
          "type": "function"
        },
        {
          "inputs": [
            {
              "internalType": "address",
              "name": "_token",
              "type": "address"
            }
          ],
          "name": "getTotalSold",
          "outputs": [
            {
              "internalType": "uint256",
              "name": "",
              "type": "uint256"
            }
          ],
          "stateMutability": "view",
          "type": "function"
        },
        {
          "inputs": [
            {
              "internalType": "address",
              "name": "_token",
              "type": "address"
            }
          ],
          "name": "getTotalSupply",
          "outputs": [
            {
              "internalType": "uint256",
              "name": "",
              "type": "uint256"
            }
          ],
          "stateMutability": "view",
          "type": "function"
        },
        {
          "inputs": [
            {
              "internalType": "address",
              "name": "_token",
              "type": "address"
            }
          ],
          "name": "isActivated",
          "outputs": [
            {
              "internalType": "bool",
              "name": "",
              "type": "bool"
            }
          ],
          "stateMutability": "view",
          "type": "function"
        },
        {
          "inputs": [
            {
              "internalType": "address",
              "name": "_token",
              "type": "address"
            }
          ],
          "name": "isClosed",
          "outputs": [
            {
              "internalType": "bool",
              "name": "",
              "type": "bool"
            }
          ],
          "stateMutability": "view",
          "type": "function"
        },
        {
          "inputs": [],
          "name": "owner",
          "outputs": [
            {
              "internalType": "address",
              "name": "",
              "type": "address"
            }
          ],
          "stateMutability": "view",
          "type": "function"
        },
        {
          "inputs": [],
          "name": "renounceOwnership",
          "outputs": [],
          "stateMutability": "nonpayable",
          "type": "function"
        },
        {
          "inputs": [],
          "name": "rewardWallet",
          "outputs": [
            {
              "internalType": "address",
              "name": "",
              "type": "address"
            }
          ],
          "stateMutability": "view",
          "type": "function"
        },
        {
          "inputs": [
            {
              "internalType": "address",
              "name": "newOwner",
              "type": "address"
            }
          ],
          "name": "transferOwnership",
          "outputs": [],
          "stateMutability": "nonpayable",
          "type": "function"
        },
        {
          "inputs": [
            {
              "internalType": "address",
              "name": "_token",
              "type": "address"
            }
          ],
          "name": "withdraw",
          "outputs": [],
          "stateMutability": "payable",
          "type": "function"
        },
        {
          "stateMutability": "payable",
          "type": "receive"
        }
      ],
      "devdoc": {
        "kind": "dev",
        "methods": {},
        "version": 1
      },
      "evm": {
        "bytecode": {
          "linkReferences": {},
          "object": "61014060405268056bc75e2d6310000060c0908152680ad78ebc5ac620000060e052681043561a8829300000610100526815af1d78b58c400000610120526200004d90600290600462000141565b503480156200005b57600080fd5b506040516200212c3803806200212c8339810160408190526200007e9162000246565b60006200008a6200013d565b600080546001600160a01b0319166001600160a01b0383169081178255604051929350917f8be0079c531659141344cd1fd0a4f28419497f9722a3daafe3b4186f6b6457e0908290a3506001600160601b0319606083811b821660805282901b1660a0526040805180820190915260168082527f4265616d537461727465723a204c61756e636850616400000000000000000000602090920191825262000134916001916200018f565b5050506200027d565b3390565b82600481019282156200017d579160200282015b828111156200017d57825182906001600160481b031690559160200191906001019062000155565b506200018b92915062000212565b5090565b828054600181600116156101000203166002900490600052602060002090601f016020900481019282620001c757600085556200017d565b82601f10620001e257805160ff19168380011785556200017d565b828001600101855582156200017d579182015b828111156200017d578251825591602001919060010190620001f5565b5b808211156200018b576000815560010162000213565b80516001600160a01b03811681146200024157600080fd5b919050565b6000806040838503121562000259578182fd5b620002648362000229565b9150620002746020840162000229565b90509250929050565b60805160601c60a05160601c611e76620002b66000398061094752806109ad52806112a752508061049452806106fc5250611e766000f3fe6080604052600436106100f75760003560e01c80638da5cb5b1161008a578063cce7ec1311610059578063cce7ec1314610296578063cebe5721146102a9578063f2fde38b146102c9578063fb75b2c7146102e9576100fe565b80638da5cb5b1461021f578063a3f4df7e14610234578063aca7376d14610256578063c9faa7c514610276576100fe565b806368da10ae116100c657806368da10ae146101905780636943b017146101bd578063715018a6146101ea57806389b31277146101ff576100fe565b806306bfa938146101035780632037f35314610139578063514149671461015b57806351cff8d91461017d576100fe565b366100fe57005b600080fd5b34801561010f57600080fd5b5061012361011e3660046116f3565b6102fe565b6040516101309190611d4d565b60405180910390f35b34801561014557600080fd5b5061015961015436600461170d565b6103c9565b005b34801561016757600080fd5b506101706106fa565b6040516101309190611826565b61015961018b3660046116f3565b61071e565b34801561019c57600080fd5b506101b06101ab3660046116f3565b610a2e565b6040516101309190611e0b565b3480156101c957600080fd5b506101dd6101d83660046116f3565b610af5565b6040516101309190611877565b3480156101f657600080fd5b50610159610b3f565b34801561020b57600080fd5b506101b061021a3660046116f3565b610bc8565b34801561022b57600080fd5b50610170610bfc565b34801561024057600080fd5b50610249610c0b565b6040516101309190611882565b34801561026257600080fd5b506101b06102713660046116f3565b610c98565b34801561028257600080fd5b506101dd6102913660046116f3565b610d5f565b6101596102a4366004611790565b610dcd565b3480156102b557600080fd5b506101b06102c43660046116f3565b6110b7565b3480156102d557600080fd5b506101596102e43660046116f3565b6111e5565b3480156102f557600080fd5b506101706112a5565b610306611649565b506001600160a01b0380821660009081526006602081815260409283902083516101c081018552815486168152600182015486169281019290925260028101548516938201939093526003830154909316606084015260048201546080840152600582015460a084015281015460c0830152600781015460e083015260088101546101008301526009810154610120830152600a810154610140830152600b810154610160830152600c810154610180830152600d01546101a08201525b919050565b6001600160a01b038a166103f85760405162461bcd60e51b81526004016103ef906118b5565b60405180910390fd5b6001600160a01b03881661041e5760405162461bcd60e51b81526004016103ef90611d16565b6104278a6112c9565b6104435760405162461bcd60e51b81526004016103ef90611bc4565b60018110158015610455575060048111155b6104715760405162461bcd60e51b81526004016103ef90611c30565b60006002600183036004811061048357fe5b015490506104bc6001600160a01b037f0000000000000000000000000000000000000000000000000000000000000000163330846112cf565b6104d16001600160a01b038c163330876112cf565b6000604051806101c00160405280336001600160a01b031681526020018d6001600160a01b031681526020018c6001600160a01b031681526020018b6001600160a01b031681526020018a815260200189815260200160008152602001888152602001878152602001868152602001600081526020018581526020018481526020016000815250905080600660008e6001600160a01b03166001600160a01b0316815260200190815260200160002060008201518160000160006101000a8154816001600160a01b0302191690836001600160a01b0316021790555060208201518160010160006101000a8154816001600160a01b0302191690836001600160a01b0316021790555060408201518160020160006101000a8154816001600160a01b0302191690836001600160a01b0316021790555060608201518160030160006101000a8154816001600160a01b0302191690836001600160a01b031602179055506080820151816004015560a0820151816005015560c0820151816006015560e082015181600701556101008201518160080155610120820151816009015561014082015181600a015561016082015181600b015561018082015181600c01556101a082015181600d0155905050336001600160a01b03168c6001600160a01b03167f416e69377d260eeed377d9a98a9bc5e0da69b0b78801392c1ee34367704cfcb0876040516106e49190611e0b565b60405180910390a3505050505050505050505050565b7f000000000000000000000000000000000000000000000000000000000000000081565b6001600160a01b0380821660009081526006602081815260409283902083516101c081018552815486168152600182015486169281019290925260028101548516938201939093526003830154909316606084015260048201546080840152600582015460a084015281015460c0830152600781015460e083015260088101546101008301526009810154610120830152600a810154610140830152600b810154610160830152600c810154610180830152600d01546101a08201526107e382610af5565b6107ff5760405162461bcd60e51b81526004016103ef90611ce8565b6101a0810151156108225760405162461bcd60e51b81526004016103ef906118ec565b80516001600160a01b0316331461084b5760405162461bcd60e51b81526004016103ef90611ae8565b6000826001600160a01b031663313ce5676040518163ffffffff1660e01b815260040160206040518083038186803b15801561088657600080fd5b505afa15801561089a573d6000803e3d6000fd5b505050506040513d601f19601f820116820180604052508101906108be91906117d9565b60ff16905060006108ef82600a0a6108e985610160015186610140015161132d90919063ffffffff16565b90611367565b905060006109056127106108e9846103e861132d565b6001600160a01b038087166000908152600660205260409081902042600d9091015586015191925016610971576109428460600151828403611399565b61096c7f000000000000000000000000000000000000000000000000000000000000000082611399565b6109d2565b610999846060015182840386604001516001600160a01b031661143a9092919063ffffffff16565b60408401516109d2906001600160a01b03167f00000000000000000000000000000000000000000000000000000000000000008361143a565b83606001516001600160a01b031684602001516001600160a01b03167f9b1bfa7fa9ee420a16e124f794c35ac9f90472acc99140eb2f6447c714cad8eb838503604051610a1f9190611e0b565b60405180910390a35050505050565b6001600160a01b0390811660009081526006602081815260409283902083516101c081018552815486168152600182015486169281019290925260028101548516938201939093526003830154909316606084015260048201546080840152600582015460a084015281015460c0830152600781015460e0830152600881015461010083015260098101546101208301819052600a820154610140840152600b820154610160840152600c820154610180840152600d909101546101a09092019190915290565b6001600160a01b038116600090815260066020526040812060050154421180610b3957506001600160a01b0382166000908152600660208190526040909120015415155b92915050565b610b47611459565b6001600160a01b0316610b58610bfc565b6001600160a01b031614610b7e5760405162461bcd60e51b81526004016103ef90611bfb565b600080546040516001600160a01b03909116907f8be0079c531659141344cd1fd0a4f28419497f9722a3daafe3b4186f6b6457e0908390a3600080546001600160a01b0319169055565b6001600160a01b0381166000908152600660205260408120600a810154600990910154610bf5908261145d565b9392505050565b6000546001600160a01b031690565b60018054604080516020600284861615610100026000190190941693909304601f81018490048402820184019092528181529291830182828015610c905780601f10610c6557610100808354040283529160200191610c90565b820191906000526020600020905b815481529060010190602001808311610c7357829003601f168201915b505050505081565b6001600160a01b0390811660009081526006602081815260409283902083516101c081018552815486168152600182015486169281019290925260028101548516938201939093526003830154909316606084015260048201546080840152600582015460a084015281015460c0830152600781015460e083015260088101546101008301526009810154610120830152600a8101546101408301819052600b820154610160840152600c820154610180840152600d909101546101a09092019190915290565b6001600160a01b0381166000908152600660205260408120600401544210801590610da557506001600160a01b0382166000908152600660205260409020600501544211155b8015610b395750506001600160a01b0316600090815260066020819052604090912001541590565b610dd682610d5f565b610df25760405162461bcd60e51b81526004016103ef90611b15565b6001600160a01b03808316600090815260066020818152604080842081516101c081018352815487168152600182015487169381019390935260028101548616918301919091526003810154909416606082015260048401546080820152600584015460a08201529083015460c0820152600783015460e082015260088301546101008201526009830154610120820152600a830154610140820152600b830154610160820152600c830154610180820152600d909201546101a08301524290610ebb85610bc8565b9050600080866001600160a01b031663313ce5676040518163ffffffff1660e01b815260040160206040518083038186803b158015610ef957600080fd5b505afa158015610f0d573d6000803e3d6000fd5b505050506040513d601f19601f82011682018060405250810190610f3191906117d9565b60ff1690508460e0015183111580610f495750858311155b15610f77576001600160a01b0387166000908152600660208190526040909120018490559194508491600191505b8180610f9757508460e001518610158015610f9757508461010001518611155b156110ae57610140850151610fac9087611485565b60066000896001600160a01b03166001600160a01b03168152602001908152602001600020600a01819055506000610ff982600a0a6108e98861016001518a61132d90919063ffffffff16565b60408701519091506001600160a01b0316611033578034101561102e5760405162461bcd60e51b81526004016103ef90611b4c565b61104d565b604086015161104d906001600160a01b03163330846112cf565b6110616001600160a01b038916338961143a565b336001600160a01b0316886001600160a01b03167fd0c183be209f70036b50de16805d88249019e1288d7b77ef877710999c0d08e6896040516110a49190611e0b565b60405180910390a3505b50505050505050565b6001600160a01b03808216600090815260066020818152604080842081516101c0810183528154871681526001820154871693810193909352600281015486169183019190915260038101549094166060820152600484015460808201819052600585015460a08301529184015460c0820152600784015460e082015260088401546101008201526009840154610120820152600a840154610140820152600b840154610160820152600c840154610180820152600d909301546101a0840152909190429081101561118e576001925050506103c4565b816080015181101580156111a657508160a001518111155b80156111b4575060c0820151155b156111c4576002925050506103c4565b8160c001518111156111db576003925050506103c4565b5060049392505050565b6111ed611459565b6001600160a01b03166111fe610bfc565b6001600160a01b0316146112245760405162461bcd60e51b81526004016103ef90611bfb565b6001600160a01b03811661124a5760405162461bcd60e51b81526004016103ef90611923565b600080546040516001600160a01b03808516939216917f8be0079c531659141344cd1fd0a4f28419497f9722a3daafe3b4186f6b6457e091a3600080546001600160a01b0319166001600160a01b0392909216919091179055565b7f000000000000000000000000000000000000000000000000000000000000000081565b3b151590565b611327846323b872dd60e01b8585856040516024016112f09392919061183a565b60408051601f198184030181529190526020810180516001600160e01b03166001600160e01b0319909316929092179091526114aa565b50505050565b60008261133c57506000610b39565b8282028284828161134957fe5b0414610bf55760405162461bcd60e51b81526004016103ef90611b83565b60008082116113885760405162461bcd60e51b81526004016103ef90611ab1565b81838161139157fe5b049392505050565b804710156113b95760405162461bcd60e51b81526004016103ef90611a34565b6000826001600160a01b0316826040516113d290611823565b60006040518083038185875af1925050503d806000811461140f576040519150601f19603f3d011682016040523d82523d6000602084013e611414565b606091505b50509050806114355760405162461bcd60e51b81526004016103ef906119d7565b505050565b6114358363a9059cbb60e01b84846040516024016112f092919061185e565b3390565b60008282111561147f5760405162461bcd60e51b81526004016103ef906119a0565b50900390565b600082820183811015610bf55760405162461bcd60e51b81526004016103ef90611969565b60006114ff826040518060400160405280602081526020017f5361666545524332303a206c6f772d6c6576656c2063616c6c206661696c6564815250856001600160a01b03166115399092919063ffffffff16565b805190915015611435578080602001905181019061151d91906117b9565b6114355760405162461bcd60e51b81526004016103ef90611c9e565b60606115488484600085611550565b949350505050565b6060824710156115725760405162461bcd60e51b81526004016103ef90611a6b565b61157b856112c9565b6115975760405162461bcd60e51b81526004016103ef90611c67565b600080866001600160a01b031685876040516115b39190611807565b60006040518083038185875af1925050503d80600081146115f0576040519150601f19603f3d011682016040523d82523d6000602084013e6115f5565b606091505b5091509150611605828286611610565b979650505050505050565b6060831561161f575081610bf5565b82511561162f5782518084602001fd5b8160405162461bcd60e51b81526004016103ef9190611882565b604051806101c0016040528060006001600160a01b0316815260200160006001600160a01b0316815260200160006001600160a01b0316815260200160006001600160a01b03168152602001600081526020016000815260200160008152602001600081526020016000815260200160008152602001600081526020016000815260200160008152602001600081525090565b80356001600160a01b03811681146103c457600080fd5b600060208284031215611704578081fd5b610bf5826116dc565b6000806000806000806000806000806101408b8d03121561172c578586fd5b6117358b6116dc565b995061174360208c016116dc565b985061175160408c016116dc565b999c989b5098996060810135995060808101359860a0820135985060c0820135975060e082013596506101008201359550610120909101359350915050565b600080604083850312156117a2578182fd5b6117ab836116dc565b946020939093013593505050565b6000602082840312156117ca578081fd5b81518015158114610bf5578182fd5b6000602082840312156117ea578081fd5b815160ff81168114610bf5578182fd5b6001600160a01b03169052565b60008251611819818460208701611e14565b9190910192915050565b90565b6001600160a01b0391909116815260200190565b6001600160a01b039384168152919092166020820152604081019190915260600190565b6001600160a01b03929092168252602082015260400190565b901515815260200190565b60006020825282518060208401526118a1816040850160208701611e14565b601f01601f19169190910160400192915050565b6020808252601a908201527f506f6f6c3a20746f6b656e41646472657373206973207a65726f000000000000604082015260600190565b60208082526019908201527f506f6f6c733a20616c7265616479207769746864726177656400000000000000604082015260600190565b60208082526026908201527f4f776e61626c653a206e6577206f776e657220697320746865207a65726f206160408201526564647265737360d01b606082015260800190565b6020808252601b908201527f536166654d6174683a206164646974696f6e206f766572666c6f770000000000604082015260600190565b6020808252601e908201527f536166654d6174683a207375627472616374696f6e206f766572666c6f770000604082015260600190565b6020808252603a908201527f416464726573733a20756e61626c6520746f2073656e642076616c75652c207260408201527f6563697069656e74206d61792068617665207265766572746564000000000000606082015260800190565b6020808252601d908201527f416464726573733a20696e73756666696369656e742062616c616e6365000000604082015260600190565b60208082526026908201527f416464726573733a20696e73756666696369656e742062616c616e636520666f6040820152651c8818d85b1b60d21b606082015260800190565b6020808252601a908201527f536166654d6174683a206469766973696f6e206279207a65726f000000000000604082015260600190565b6020808252601390820152722837b7b6399d1034b9903737ba1037bbb732b960691b604082015260600190565b6020808252601c908201527f506f6f6c733a206e6f742073746172746564206f7220636c6f73656400000000604082015260600190565b60208082526017908201527f506f6f6c733a206e6f7420656e6f7567682076616c7565000000000000000000604082015260600190565b60208082526021908201527f536166654d6174683a206d756c7469706c69636174696f6e206f766572666c6f6040820152607760f81b606082015260800190565b6020808252601f908201527f506f6f6c3a20746f6b656e41646472657373206973206e6f7420455243323000604082015260600190565b6020808252818101527f4f776e61626c653a2063616c6c6572206973206e6f7420746865206f776e6572604082015260600190565b6020808252601a908201527f506f6f6c3a20746965722073686f756c642062652031207e2034000000000000604082015260600190565b6020808252601d908201527f416464726573733a2063616c6c20746f206e6f6e2d636f6e7472616374000000604082015260600190565b6020808252602a908201527f5361666545524332303a204552433230206f7065726174696f6e20646964206e6040820152691bdd081cdd58d8d9595960b21b606082015260800190565b602080825260149082015273141bdbdb1cce881a5cc81b9bdd0818db1bdcd95960621b604082015260600190565b6020808252601b908201527f506f6f6c3a207265636569766557616c6c6574206973207a65726f0000000000604082015260600190565b60006101c082019050611d618284516117fa565b6020830151611d7360208401826117fa565b506040830151611d8660408401826117fa565b506060830151611d9960608401826117fa565b506080838101519083015260a0808401519083015260c0808401519083015260e08084015190830152610100808401519083015261012080840151908301526101408084015190830152610160808401519083015261018080840151908301526101a092830151929091019190915290565b90815260200190565b60005b83811015611e2f578181015183820152602001611e17565b83811115611327575050600091015256fea2646970667358221220e4505e695b47e96b029ce1a322e84f6df86351abe2ed6f54073a22b61b09b41b64736f6c63430007060033",
          "opcodes": "PUSH2 0x140 PUSH1 0x40 MSTORE PUSH9 0x56BC75E2D63100000 PUSH1 0xC0 SWAP1 DUP2 MSTORE PUSH9 0xAD78EBC5AC6200000 PUSH1 0xE0 MSTORE PUSH9 0x1043561A8829300000 PUSH2 0x100 MSTORE PUSH9 0x15AF1D78B58C400000 PUSH2 0x120 MSTORE PUSH3 0x4D SWAP1 PUSH1 0x2 SWAP1 PUSH1 0x4 PUSH3 0x141 JUMP JUMPDEST POP CALLVALUE DUP1 ISZERO PUSH3 0x5B JUMPI PUSH1 0x0 DUP1 REVERT JUMPDEST POP PUSH1 0x40 MLOAD PUSH3 0x212C CODESIZE SUB DUP1 PUSH3 0x212C DUP4 CODECOPY DUP2 ADD PUSH1 0x40 DUP2 SWAP1 MSTORE PUSH3 0x7E SWAP2 PUSH3 0x246 JUMP JUMPDEST PUSH1 0x0 PUSH3 0x8A PUSH3 0x13D JUMP JUMPDEST PUSH1 0x0 DUP1 SLOAD PUSH1 0x1 PUSH1 0x1 PUSH1 0xA0 SHL SUB NOT AND PUSH1 0x1 PUSH1 0x1 PUSH1 0xA0 SHL SUB DUP4 AND SWAP1 DUP2 OR DUP3 SSTORE PUSH1 0x40 MLOAD SWAP3 SWAP4 POP SWAP2 PUSH32 0x8BE0079C531659141344CD1FD0A4F28419497F9722A3DAAFE3B4186F6B6457E0 SWAP1 DUP3 SWAP1 LOG3 POP PUSH1 0x1 PUSH1 0x1 PUSH1 0x60 SHL SUB NOT PUSH1 0x60 DUP4 DUP2 SHL DUP3 AND PUSH1 0x80 MSTORE DUP3 SWAP1 SHL AND PUSH1 0xA0 MSTORE PUSH1 0x40 DUP1 MLOAD DUP1 DUP3 ADD SWAP1 SWAP2 MSTORE PUSH1 0x16 DUP1 DUP3 MSTORE PUSH32 0x4265616D537461727465723A204C61756E636850616400000000000000000000 PUSH1 0x20 SWAP1 SWAP3 ADD SWAP2 DUP3 MSTORE PUSH3 0x134 SWAP2 PUSH1 0x1 SWAP2 PUSH3 0x18F JUMP JUMPDEST POP POP POP PUSH3 0x27D JUMP JUMPDEST CALLER SWAP1 JUMP JUMPDEST DUP3 PUSH1 0x4 DUP2 ADD SWAP3 DUP3 ISZERO PUSH3 0x17D JUMPI SWAP2 PUSH1 0x20 MUL DUP3 ADD JUMPDEST DUP3 DUP2 GT ISZERO PUSH3 0x17D JUMPI DUP3 MLOAD DUP3 SWAP1 PUSH1 0x1 PUSH1 0x1 PUSH1 0x48 SHL SUB AND SWAP1 SSTORE SWAP2 PUSH1 0x20 ADD SWAP2 SWAP1 PUSH1 0x1 ADD SWAP1 PUSH3 0x155 JUMP JUMPDEST POP PUSH3 0x18B SWAP3 SWAP2 POP PUSH3 0x212 JUMP JUMPDEST POP SWAP1 JUMP JUMPDEST DUP3 DUP1 SLOAD PUSH1 0x1 DUP2 PUSH1 0x1 AND ISZERO PUSH2 0x100 MUL SUB AND PUSH1 0x2 SWAP1 DIV SWAP1 PUSH1 0x0 MSTORE PUSH1 0x20 PUSH1 0x0 KECCAK256 SWAP1 PUSH1 0x1F ADD PUSH1 0x20 SWAP1 DIV DUP2 ADD SWAP3 DUP3 PUSH3 0x1C7 JUMPI PUSH1 0x0 DUP6 SSTORE PUSH3 0x17D JUMP JUMPDEST DUP3 PUSH1 0x1F LT PUSH3 0x1E2 JUMPI DUP1 MLOAD PUSH1 0xFF NOT AND DUP4 DUP1 ADD OR DUP6 SSTORE PUSH3 0x17D JUMP JUMPDEST DUP3 DUP1 ADD PUSH1 0x1 ADD DUP6 SSTORE DUP3 ISZERO PUSH3 0x17D JUMPI SWAP2 DUP3 ADD JUMPDEST DUP3 DUP2 GT ISZERO PUSH3 0x17D JUMPI DUP3 MLOAD DUP3 SSTORE SWAP2 PUSH1 0x20 ADD SWAP2 SWAP1 PUSH1 0x1 ADD SWAP1 PUSH3 0x1F5 JUMP JUMPDEST JUMPDEST DUP1 DUP3 GT ISZERO PUSH3 0x18B JUMPI PUSH1 0x0 DUP2 SSTORE PUSH1 0x1 ADD PUSH3 0x213 JUMP JUMPDEST DUP1 MLOAD PUSH1 0x1 PUSH1 0x1 PUSH1 0xA0 SHL SUB DUP2 AND DUP2 EQ PUSH3 0x241 JUMPI PUSH1 0x0 DUP1 REVERT JUMPDEST SWAP2 SWAP1 POP JUMP JUMPDEST PUSH1 0x0 DUP1 PUSH1 0x40 DUP4 DUP6 SUB SLT ISZERO PUSH3 0x259 JUMPI DUP2 DUP3 REVERT JUMPDEST PUSH3 0x264 DUP4 PUSH3 0x229 JUMP JUMPDEST SWAP2 POP PUSH3 0x274 PUSH1 0x20 DUP5 ADD PUSH3 0x229 JUMP JUMPDEST SWAP1 POP SWAP3 POP SWAP3 SWAP1 POP JUMP JUMPDEST PUSH1 0x80 MLOAD PUSH1 0x60 SHR PUSH1 0xA0 MLOAD PUSH1 0x60 SHR PUSH2 0x1E76 PUSH3 0x2B6 PUSH1 0x0 CODECOPY DUP1 PUSH2 0x947 MSTORE DUP1 PUSH2 0x9AD MSTORE DUP1 PUSH2 0x12A7 MSTORE POP DUP1 PUSH2 0x494 MSTORE DUP1 PUSH2 0x6FC MSTORE POP PUSH2 0x1E76 PUSH1 0x0 RETURN INVALID PUSH1 0x80 PUSH1 0x40 MSTORE PUSH1 0x4 CALLDATASIZE LT PUSH2 0xF7 JUMPI PUSH1 0x0 CALLDATALOAD PUSH1 0xE0 SHR DUP1 PUSH4 0x8DA5CB5B GT PUSH2 0x8A JUMPI DUP1 PUSH4 0xCCE7EC13 GT PUSH2 0x59 JUMPI DUP1 PUSH4 0xCCE7EC13 EQ PUSH2 0x296 JUMPI DUP1 PUSH4 0xCEBE5721 EQ PUSH2 0x2A9 JUMPI DUP1 PUSH4 0xF2FDE38B EQ PUSH2 0x2C9 JUMPI DUP1 PUSH4 0xFB75B2C7 EQ PUSH2 0x2E9 JUMPI PUSH2 0xFE JUMP JUMPDEST DUP1 PUSH4 0x8DA5CB5B EQ PUSH2 0x21F JUMPI DUP1 PUSH4 0xA3F4DF7E EQ PUSH2 0x234 JUMPI DUP1 PUSH4 0xACA7376D EQ PUSH2 0x256 JUMPI DUP1 PUSH4 0xC9FAA7C5 EQ PUSH2 0x276 JUMPI PUSH2 0xFE JUMP JUMPDEST DUP1 PUSH4 0x68DA10AE GT PUSH2 0xC6 JUMPI DUP1 PUSH4 0x68DA10AE EQ PUSH2 0x190 JUMPI DUP1 PUSH4 0x6943B017 EQ PUSH2 0x1BD JUMPI DUP1 PUSH4 0x715018A6 EQ PUSH2 0x1EA JUMPI DUP1 PUSH4 0x89B31277 EQ PUSH2 0x1FF JUMPI PUSH2 0xFE JUMP JUMPDEST DUP1 PUSH4 0x6BFA938 EQ PUSH2 0x103 JUMPI DUP1 PUSH4 0x2037F353 EQ PUSH2 0x139 JUMPI DUP1 PUSH4 0x51414967 EQ PUSH2 0x15B JUMPI DUP1 PUSH4 0x51CFF8D9 EQ PUSH2 0x17D JUMPI PUSH2 0xFE JUMP JUMPDEST CALLDATASIZE PUSH2 0xFE JUMPI STOP JUMPDEST PUSH1 0x0 DUP1 REVERT JUMPDEST CALLVALUE DUP1 ISZERO PUSH2 0x10F JUMPI PUSH1 0x0 DUP1 REVERT JUMPDEST POP PUSH2 0x123 PUSH2 0x11E CALLDATASIZE PUSH1 0x4 PUSH2 0x16F3 JUMP JUMPDEST PUSH2 0x2FE JUMP JUMPDEST PUSH1 0x40 MLOAD PUSH2 0x130 SWAP2 SWAP1 PUSH2 0x1D4D JUMP JUMPDEST PUSH1 0x40 MLOAD DUP1 SWAP2 SUB SWAP1 RETURN JUMPDEST CALLVALUE DUP1 ISZERO PUSH2 0x145 JUMPI PUSH1 0x0 DUP1 REVERT JUMPDEST POP PUSH2 0x159 PUSH2 0x154 CALLDATASIZE PUSH1 0x4 PUSH2 0x170D JUMP JUMPDEST PUSH2 0x3C9 JUMP JUMPDEST STOP JUMPDEST CALLVALUE DUP1 ISZERO PUSH2 0x167 JUMPI PUSH1 0x0 DUP1 REVERT JUMPDEST POP PUSH2 0x170 PUSH2 0x6FA JUMP JUMPDEST PUSH1 0x40 MLOAD PUSH2 0x130 SWAP2 SWAP1 PUSH2 0x1826 JUMP JUMPDEST PUSH2 0x159 PUSH2 0x18B CALLDATASIZE PUSH1 0x4 PUSH2 0x16F3 JUMP JUMPDEST PUSH2 0x71E JUMP JUMPDEST CALLVALUE DUP1 ISZERO PUSH2 0x19C JUMPI PUSH1 0x0 DUP1 REVERT JUMPDEST POP PUSH2 0x1B0 PUSH2 0x1AB CALLDATASIZE PUSH1 0x4 PUSH2 0x16F3 JUMP JUMPDEST PUSH2 0xA2E JUMP JUMPDEST PUSH1 0x40 MLOAD PUSH2 0x130 SWAP2 SWAP1 PUSH2 0x1E0B JUMP JUMPDEST CALLVALUE DUP1 ISZERO PUSH2 0x1C9 JUMPI PUSH1 0x0 DUP1 REVERT JUMPDEST POP PUSH2 0x1DD PUSH2 0x1D8 CALLDATASIZE PUSH1 0x4 PUSH2 0x16F3 JUMP JUMPDEST PUSH2 0xAF5 JUMP JUMPDEST PUSH1 0x40 MLOAD PUSH2 0x130 SWAP2 SWAP1 PUSH2 0x1877 JUMP JUMPDEST CALLVALUE DUP1 ISZERO PUSH2 0x1F6 JUMPI PUSH1 0x0 DUP1 REVERT JUMPDEST POP PUSH2 0x159 PUSH2 0xB3F JUMP JUMPDEST CALLVALUE DUP1 ISZERO PUSH2 0x20B JUMPI PUSH1 0x0 DUP1 REVERT JUMPDEST POP PUSH2 0x1B0 PUSH2 0x21A CALLDATASIZE PUSH1 0x4 PUSH2 0x16F3 JUMP JUMPDEST PUSH2 0xBC8 JUMP JUMPDEST CALLVALUE DUP1 ISZERO PUSH2 0x22B JUMPI PUSH1 0x0 DUP1 REVERT JUMPDEST POP PUSH2 0x170 PUSH2 0xBFC JUMP JUMPDEST CALLVALUE DUP1 ISZERO PUSH2 0x240 JUMPI PUSH1 0x0 DUP1 REVERT JUMPDEST POP PUSH2 0x249 PUSH2 0xC0B JUMP JUMPDEST PUSH1 0x40 MLOAD PUSH2 0x130 SWAP2 SWAP1 PUSH2 0x1882 JUMP JUMPDEST CALLVALUE DUP1 ISZERO PUSH2 0x262 JUMPI PUSH1 0x0 DUP1 REVERT JUMPDEST POP PUSH2 0x1B0 PUSH2 0x271 CALLDATASIZE PUSH1 0x4 PUSH2 0x16F3 JUMP JUMPDEST PUSH2 0xC98 JUMP JUMPDEST CALLVALUE DUP1 ISZERO PUSH2 0x282 JUMPI PUSH1 0x0 DUP1 REVERT JUMPDEST POP PUSH2 0x1DD PUSH2 0x291 CALLDATASIZE PUSH1 0x4 PUSH2 0x16F3 JUMP JUMPDEST PUSH2 0xD5F JUMP JUMPDEST PUSH2 0x159 PUSH2 0x2A4 CALLDATASIZE PUSH1 0x4 PUSH2 0x1790 JUMP JUMPDEST PUSH2 0xDCD JUMP JUMPDEST CALLVALUE DUP1 ISZERO PUSH2 0x2B5 JUMPI PUSH1 0x0 DUP1 REVERT JUMPDEST POP PUSH2 0x1B0 PUSH2 0x2C4 CALLDATASIZE PUSH1 0x4 PUSH2 0x16F3 JUMP JUMPDEST PUSH2 0x10B7 JUMP JUMPDEST CALLVALUE DUP1 ISZERO PUSH2 0x2D5 JUMPI PUSH1 0x0 DUP1 REVERT JUMPDEST POP PUSH2 0x159 PUSH2 0x2E4 CALLDATASIZE PUSH1 0x4 PUSH2 0x16F3 JUMP JUMPDEST PUSH2 0x11E5 JUMP JUMPDEST CALLVALUE DUP1 ISZERO PUSH2 0x2F5 JUMPI PUSH1 0x0 DUP1 REVERT JUMPDEST POP PUSH2 0x170 PUSH2 0x12A5 JUMP JUMPDEST PUSH2 0x306 PUSH2 0x1649 JUMP JUMPDEST POP PUSH1 0x1 PUSH1 0x1 PUSH1 0xA0 SHL SUB DUP1 DUP3 AND PUSH1 0x0 SWAP1 DUP2 MSTORE PUSH1 0x6 PUSH1 0x20 DUP2 DUP2 MSTORE PUSH1 0x40 SWAP3 DUP4 SWAP1 KECCAK256 DUP4 MLOAD PUSH2 0x1C0 DUP2 ADD DUP6 MSTORE DUP2 SLOAD DUP7 AND DUP2 MSTORE PUSH1 0x1 DUP3 ADD SLOAD DUP7 AND SWAP3 DUP2 ADD SWAP3 SWAP1 SWAP3 MSTORE PUSH1 0x2 DUP2 ADD SLOAD DUP6 AND SWAP4 DUP3 ADD SWAP4 SWAP1 SWAP4 MSTORE PUSH1 0x3 DUP4 ADD SLOAD SWAP1 SWAP4 AND PUSH1 0x60 DUP5 ADD MSTORE PUSH1 0x4 DUP3 ADD SLOAD PUSH1 0x80 DUP5 ADD MSTORE PUSH1 0x5 DUP3 ADD SLOAD PUSH1 0xA0 DUP5 ADD MSTORE DUP2 ADD SLOAD PUSH1 0xC0 DUP4 ADD MSTORE PUSH1 0x7 DUP2 ADD SLOAD PUSH1 0xE0 DUP4 ADD MSTORE PUSH1 0x8 DUP2 ADD SLOAD PUSH2 0x100 DUP4 ADD MSTORE PUSH1 0x9 DUP2 ADD SLOAD PUSH2 0x120 DUP4 ADD MSTORE PUSH1 0xA DUP2 ADD SLOAD PUSH2 0x140 DUP4 ADD MSTORE PUSH1 0xB DUP2 ADD SLOAD PUSH2 0x160 DUP4 ADD MSTORE PUSH1 0xC DUP2 ADD SLOAD PUSH2 0x180 DUP4 ADD MSTORE PUSH1 0xD ADD SLOAD PUSH2 0x1A0 DUP3 ADD MSTORE JUMPDEST SWAP2 SWAP1 POP JUMP JUMPDEST PUSH1 0x1 PUSH1 0x1 PUSH1 0xA0 SHL SUB DUP11 AND PUSH2 0x3F8 JUMPI PUSH1 0x40 MLOAD PUSH3 0x461BCD PUSH1 0xE5 SHL DUP2 MSTORE PUSH1 0x4 ADD PUSH2 0x3EF SWAP1 PUSH2 0x18B5 JUMP JUMPDEST PUSH1 0x40 MLOAD DUP1 SWAP2 SUB SWAP1 REVERT JUMPDEST PUSH1 0x1 PUSH1 0x1 PUSH1 0xA0 SHL SUB DUP9 AND PUSH2 0x41E JUMPI PUSH1 0x40 MLOAD PUSH3 0x461BCD PUSH1 0xE5 SHL DUP2 MSTORE PUSH1 0x4 ADD PUSH2 0x3EF SWAP1 PUSH2 0x1D16 JUMP JUMPDEST PUSH2 0x427 DUP11 PUSH2 0x12C9 JUMP JUMPDEST PUSH2 0x443 JUMPI PUSH1 0x40 MLOAD PUSH3 0x461BCD PUSH1 0xE5 SHL DUP2 MSTORE PUSH1 0x4 ADD PUSH2 0x3EF SWAP1 PUSH2 0x1BC4 JUMP JUMPDEST PUSH1 0x1 DUP2 LT ISZERO DUP1 ISZERO PUSH2 0x455 JUMPI POP PUSH1 0x4 DUP2 GT ISZERO JUMPDEST PUSH2 0x471 JUMPI PUSH1 0x40 MLOAD PUSH3 0x461BCD PUSH1 0xE5 SHL DUP2 MSTORE PUSH1 0x4 ADD PUSH2 0x3EF SWAP1 PUSH2 0x1C30 JUMP JUMPDEST PUSH1 0x0 PUSH1 0x2 PUSH1 0x1 DUP4 SUB PUSH1 0x4 DUP2 LT PUSH2 0x483 JUMPI INVALID JUMPDEST ADD SLOAD SWAP1 POP PUSH2 0x4BC PUSH1 0x1 PUSH1 0x1 PUSH1 0xA0 SHL SUB PUSH32 0x0 AND CALLER ADDRESS DUP5 PUSH2 0x12CF JUMP JUMPDEST PUSH2 0x4D1 PUSH1 0x1 PUSH1 0x1 PUSH1 0xA0 SHL SUB DUP13 AND CALLER ADDRESS DUP8 PUSH2 0x12CF JUMP JUMPDEST PUSH1 0x0 PUSH1 0x40 MLOAD DUP1 PUSH2 0x1C0 ADD PUSH1 0x40 MSTORE DUP1 CALLER PUSH1 0x1 PUSH1 0x1 PUSH1 0xA0 SHL SUB AND DUP2 MSTORE PUSH1 0x20 ADD DUP14 PUSH1 0x1 PUSH1 0x1 PUSH1 0xA0 SHL SUB AND DUP2 MSTORE PUSH1 0x20 ADD DUP13 PUSH1 0x1 PUSH1 0x1 PUSH1 0xA0 SHL SUB AND DUP2 MSTORE PUSH1 0x20 ADD DUP12 PUSH1 0x1 PUSH1 0x1 PUSH1 0xA0 SHL SUB AND DUP2 MSTORE PUSH1 0x20 ADD DUP11 DUP2 MSTORE PUSH1 0x20 ADD DUP10 DUP2 MSTORE PUSH1 0x20 ADD PUSH1 0x0 DUP2 MSTORE PUSH1 0x20 ADD DUP9 DUP2 MSTORE PUSH1 0x20 ADD DUP8 DUP2 MSTORE PUSH1 0x20 ADD DUP7 DUP2 MSTORE PUSH1 0x20 ADD PUSH1 0x0 DUP2 MSTORE PUSH1 0x20 ADD DUP6 DUP2 MSTORE PUSH1 0x20 ADD DUP5 DUP2 MSTORE PUSH1 0x20 ADD PUSH1 0x0 DUP2 MSTORE POP SWAP1 POP DUP1 PUSH1 0x6 PUSH1 0x0 DUP15 PUSH1 0x1 PUSH1 0x1 PUSH1 0xA0 SHL SUB AND PUSH1 0x1 PUSH1 0x1 PUSH1 0xA0 SHL SUB AND DUP2 MSTORE PUSH1 0x20 ADD SWAP1 DUP2 MSTORE PUSH1 0x20 ADD PUSH1 0x0 KECCAK256 PUSH1 0x0 DUP3 ADD MLOAD DUP2 PUSH1 0x0 ADD PUSH1 0x0 PUSH2 0x100 EXP DUP2 SLOAD DUP2 PUSH1 0x1 PUSH1 0x1 PUSH1 0xA0 SHL SUB MUL NOT AND SWAP1 DUP4 PUSH1 0x1 PUSH1 0x1 PUSH1 0xA0 SHL SUB AND MUL OR SWAP1 SSTORE POP PUSH1 0x20 DUP3 ADD MLOAD DUP2 PUSH1 0x1 ADD PUSH1 0x0 PUSH2 0x100 EXP DUP2 SLOAD DUP2 PUSH1 0x1 PUSH1 0x1 PUSH1 0xA0 SHL SUB MUL NOT AND SWAP1 DUP4 PUSH1 0x1 PUSH1 0x1 PUSH1 0xA0 SHL SUB AND MUL OR SWAP1 SSTORE POP PUSH1 0x40 DUP3 ADD MLOAD DUP2 PUSH1 0x2 ADD PUSH1 0x0 PUSH2 0x100 EXP DUP2 SLOAD DUP2 PUSH1 0x1 PUSH1 0x1 PUSH1 0xA0 SHL SUB MUL NOT AND SWAP1 DUP4 PUSH1 0x1 PUSH1 0x1 PUSH1 0xA0 SHL SUB AND MUL OR SWAP1 SSTORE POP PUSH1 0x60 DUP3 ADD MLOAD DUP2 PUSH1 0x3 ADD PUSH1 0x0 PUSH2 0x100 EXP DUP2 SLOAD DUP2 PUSH1 0x1 PUSH1 0x1 PUSH1 0xA0 SHL SUB MUL NOT AND SWAP1 DUP4 PUSH1 0x1 PUSH1 0x1 PUSH1 0xA0 SHL SUB AND MUL OR SWAP1 SSTORE POP PUSH1 0x80 DUP3 ADD MLOAD DUP2 PUSH1 0x4 ADD SSTORE PUSH1 0xA0 DUP3 ADD MLOAD DUP2 PUSH1 0x5 ADD SSTORE PUSH1 0xC0 DUP3 ADD MLOAD DUP2 PUSH1 0x6 ADD SSTORE PUSH1 0xE0 DUP3 ADD MLOAD DUP2 PUSH1 0x7 ADD SSTORE PUSH2 0x100 DUP3 ADD MLOAD DUP2 PUSH1 0x8 ADD SSTORE PUSH2 0x120 DUP3 ADD MLOAD DUP2 PUSH1 0x9 ADD SSTORE PUSH2 0x140 DUP3 ADD MLOAD DUP2 PUSH1 0xA ADD SSTORE PUSH2 0x160 DUP3 ADD MLOAD DUP2 PUSH1 0xB ADD SSTORE PUSH2 0x180 DUP3 ADD MLOAD DUP2 PUSH1 0xC ADD SSTORE PUSH2 0x1A0 DUP3 ADD MLOAD DUP2 PUSH1 0xD ADD SSTORE SWAP1 POP POP CALLER PUSH1 0x1 PUSH1 0x1 PUSH1 0xA0 SHL SUB AND DUP13 PUSH1 0x1 PUSH1 0x1 PUSH1 0xA0 SHL SUB AND PUSH32 0x416E69377D260EEED377D9A98A9BC5E0DA69B0B78801392C1EE34367704CFCB0 DUP8 PUSH1 0x40 MLOAD PUSH2 0x6E4 SWAP2 SWAP1 PUSH2 0x1E0B JUMP JUMPDEST PUSH1 0x40 MLOAD DUP1 SWAP2 SUB SWAP1 LOG3 POP POP POP POP POP POP POP POP POP POP POP POP JUMP JUMPDEST PUSH32 0x0 DUP2 JUMP JUMPDEST PUSH1 0x1 PUSH1 0x1 PUSH1 0xA0 SHL SUB DUP1 DUP3 AND PUSH1 0x0 SWAP1 DUP2 MSTORE PUSH1 0x6 PUSH1 0x20 DUP2 DUP2 MSTORE PUSH1 0x40 SWAP3 DUP4 SWAP1 KECCAK256 DUP4 MLOAD PUSH2 0x1C0 DUP2 ADD DUP6 MSTORE DUP2 SLOAD DUP7 AND DUP2 MSTORE PUSH1 0x1 DUP3 ADD SLOAD DUP7 AND SWAP3 DUP2 ADD SWAP3 SWAP1 SWAP3 MSTORE PUSH1 0x2 DUP2 ADD SLOAD DUP6 AND SWAP4 DUP3 ADD SWAP4 SWAP1 SWAP4 MSTORE PUSH1 0x3 DUP4 ADD SLOAD SWAP1 SWAP4 AND PUSH1 0x60 DUP5 ADD MSTORE PUSH1 0x4 DUP3 ADD SLOAD PUSH1 0x80 DUP5 ADD MSTORE PUSH1 0x5 DUP3 ADD SLOAD PUSH1 0xA0 DUP5 ADD MSTORE DUP2 ADD SLOAD PUSH1 0xC0 DUP4 ADD MSTORE PUSH1 0x7 DUP2 ADD SLOAD PUSH1 0xE0 DUP4 ADD MSTORE PUSH1 0x8 DUP2 ADD SLOAD PUSH2 0x100 DUP4 ADD MSTORE PUSH1 0x9 DUP2 ADD SLOAD PUSH2 0x120 DUP4 ADD MSTORE PUSH1 0xA DUP2 ADD SLOAD PUSH2 0x140 DUP4 ADD MSTORE PUSH1 0xB DUP2 ADD SLOAD PUSH2 0x160 DUP4 ADD MSTORE PUSH1 0xC DUP2 ADD SLOAD PUSH2 0x180 DUP4 ADD MSTORE PUSH1 0xD ADD SLOAD PUSH2 0x1A0 DUP3 ADD MSTORE PUSH2 0x7E3 DUP3 PUSH2 0xAF5 JUMP JUMPDEST PUSH2 0x7FF JUMPI PUSH1 0x40 MLOAD PUSH3 0x461BCD PUSH1 0xE5 SHL DUP2 MSTORE PUSH1 0x4 ADD PUSH2 0x3EF SWAP1 PUSH2 0x1CE8 JUMP JUMPDEST PUSH2 0x1A0 DUP2 ADD MLOAD ISZERO PUSH2 0x822 JUMPI PUSH1 0x40 MLOAD PUSH3 0x461BCD PUSH1 0xE5 SHL DUP2 MSTORE PUSH1 0x4 ADD PUSH2 0x3EF SWAP1 PUSH2 0x18EC JUMP JUMPDEST DUP1 MLOAD PUSH1 0x1 PUSH1 0x1 PUSH1 0xA0 SHL SUB AND CALLER EQ PUSH2 0x84B JUMPI PUSH1 0x40 MLOAD PUSH3 0x461BCD PUSH1 0xE5 SHL DUP2 MSTORE PUSH1 0x4 ADD PUSH2 0x3EF SWAP1 PUSH2 0x1AE8 JUMP JUMPDEST PUSH1 0x0 DUP3 PUSH1 0x1 PUSH1 0x1 PUSH1 0xA0 SHL SUB AND PUSH4 0x313CE567 PUSH1 0x40 MLOAD DUP2 PUSH4 0xFFFFFFFF AND PUSH1 0xE0 SHL DUP2 MSTORE PUSH1 0x4 ADD PUSH1 0x20 PUSH1 0x40 MLOAD DUP1 DUP4 SUB DUP2 DUP7 DUP1 EXTCODESIZE ISZERO DUP1 ISZERO PUSH2 0x886 JUMPI PUSH1 0x0 DUP1 REVERT JUMPDEST POP GAS STATICCALL ISZERO DUP1 ISZERO PUSH2 0x89A JUMPI RETURNDATASIZE PUSH1 0x0 DUP1 RETURNDATACOPY RETURNDATASIZE PUSH1 0x0 REVERT JUMPDEST POP POP POP POP PUSH1 0x40 MLOAD RETURNDATASIZE PUSH1 0x1F NOT PUSH1 0x1F DUP3 ADD AND DUP3 ADD DUP1 PUSH1 0x40 MSTORE POP DUP2 ADD SWAP1 PUSH2 0x8BE SWAP2 SWAP1 PUSH2 0x17D9 JUMP JUMPDEST PUSH1 0xFF AND SWAP1 POP PUSH1 0x0 PUSH2 0x8EF DUP3 PUSH1 0xA EXP PUSH2 0x8E9 DUP6 PUSH2 0x160 ADD MLOAD DUP7 PUSH2 0x140 ADD MLOAD PUSH2 0x132D SWAP1 SWAP2 SWAP1 PUSH4 0xFFFFFFFF AND JUMP JUMPDEST SWAP1 PUSH2 0x1367 JUMP JUMPDEST SWAP1 POP PUSH1 0x0 PUSH2 0x905 PUSH2 0x2710 PUSH2 0x8E9 DUP5 PUSH2 0x3E8 PUSH2 0x132D JUMP JUMPDEST PUSH1 0x1 PUSH1 0x1 PUSH1 0xA0 SHL SUB DUP1 DUP8 AND PUSH1 0x0 SWAP1 DUP2 MSTORE PUSH1 0x6 PUSH1 0x20 MSTORE PUSH1 0x40 SWAP1 DUP2 SWAP1 KECCAK256 TIMESTAMP PUSH1 0xD SWAP1 SWAP2 ADD SSTORE DUP7 ADD MLOAD SWAP2 SWAP3 POP AND PUSH2 0x971 JUMPI PUSH2 0x942 DUP5 PUSH1 0x60 ADD MLOAD DUP3 DUP5 SUB PUSH2 0x1399 JUMP JUMPDEST PUSH2 0x96C PUSH32 0x0 DUP3 PUSH2 0x1399 JUMP JUMPDEST PUSH2 0x9D2 JUMP JUMPDEST PUSH2 0x999 DUP5 PUSH1 0x60 ADD MLOAD DUP3 DUP5 SUB DUP7 PUSH1 0x40 ADD MLOAD PUSH1 0x1 PUSH1 0x1 PUSH1 0xA0 SHL SUB AND PUSH2 0x143A SWAP1 SWAP3 SWAP2 SWAP1 PUSH4 0xFFFFFFFF AND JUMP JUMPDEST PUSH1 0x40 DUP5 ADD MLOAD PUSH2 0x9D2 SWAP1 PUSH1 0x1 PUSH1 0x1 PUSH1 0xA0 SHL SUB AND PUSH32 0x0 DUP4 PUSH2 0x143A JUMP JUMPDEST DUP4 PUSH1 0x60 ADD MLOAD PUSH1 0x1 PUSH1 0x1 PUSH1 0xA0 SHL SUB AND DUP5 PUSH1 0x20 ADD MLOAD PUSH1 0x1 PUSH1 0x1 PUSH1 0xA0 SHL SUB AND PUSH32 0x9B1BFA7FA9EE420A16E124F794C35AC9F90472ACC99140EB2F6447C714CAD8EB DUP4 DUP6 SUB PUSH1 0x40 MLOAD PUSH2 0xA1F SWAP2 SWAP1 PUSH2 0x1E0B JUMP JUMPDEST PUSH1 0x40 MLOAD DUP1 SWAP2 SUB SWAP1 LOG3 POP POP POP POP POP JUMP JUMPDEST PUSH1 0x1 PUSH1 0x1 PUSH1 0xA0 SHL SUB SWAP1 DUP2 AND PUSH1 0x0 SWAP1 DUP2 MSTORE PUSH1 0x6 PUSH1 0x20 DUP2 DUP2 MSTORE PUSH1 0x40 SWAP3 DUP4 SWAP1 KECCAK256 DUP4 MLOAD PUSH2 0x1C0 DUP2 ADD DUP6 MSTORE DUP2 SLOAD DUP7 AND DUP2 MSTORE PUSH1 0x1 DUP3 ADD SLOAD DUP7 AND SWAP3 DUP2 ADD SWAP3 SWAP1 SWAP3 MSTORE PUSH1 0x2 DUP2 ADD SLOAD DUP6 AND SWAP4 DUP3 ADD SWAP4 SWAP1 SWAP4 MSTORE PUSH1 0x3 DUP4 ADD SLOAD SWAP1 SWAP4 AND PUSH1 0x60 DUP5 ADD MSTORE PUSH1 0x4 DUP3 ADD SLOAD PUSH1 0x80 DUP5 ADD MSTORE PUSH1 0x5 DUP3 ADD SLOAD PUSH1 0xA0 DUP5 ADD MSTORE DUP2 ADD SLOAD PUSH1 0xC0 DUP4 ADD MSTORE PUSH1 0x7 DUP2 ADD SLOAD PUSH1 0xE0 DUP4 ADD MSTORE PUSH1 0x8 DUP2 ADD SLOAD PUSH2 0x100 DUP4 ADD MSTORE PUSH1 0x9 DUP2 ADD SLOAD PUSH2 0x120 DUP4 ADD DUP2 SWAP1 MSTORE PUSH1 0xA DUP3 ADD SLOAD PUSH2 0x140 DUP5 ADD MSTORE PUSH1 0xB DUP3 ADD SLOAD PUSH2 0x160 DUP5 ADD MSTORE PUSH1 0xC DUP3 ADD SLOAD PUSH2 0x180 DUP5 ADD MSTORE PUSH1 0xD SWAP1 SWAP2 ADD SLOAD PUSH2 0x1A0 SWAP1 SWAP3 ADD SWAP2 SWAP1 SWAP2 MSTORE SWAP1 JUMP JUMPDEST PUSH1 0x1 PUSH1 0x1 PUSH1 0xA0 SHL SUB DUP2 AND PUSH1 0x0 SWAP1 DUP2 MSTORE PUSH1 0x6 PUSH1 0x20 MSTORE PUSH1 0x40 DUP2 KECCAK256 PUSH1 0x5 ADD SLOAD TIMESTAMP GT DUP1 PUSH2 0xB39 JUMPI POP PUSH1 0x1 PUSH1 0x1 PUSH1 0xA0 SHL SUB DUP3 AND PUSH1 0x0 SWAP1 DUP2 MSTORE PUSH1 0x6 PUSH1 0x20 DUP2 SWAP1 MSTORE PUSH1 0x40 SWAP1 SWAP2 KECCAK256 ADD SLOAD ISZERO ISZERO JUMPDEST SWAP3 SWAP2 POP POP JUMP JUMPDEST PUSH2 0xB47 PUSH2 0x1459 JUMP JUMPDEST PUSH1 0x1 PUSH1 0x1 PUSH1 0xA0 SHL SUB AND PUSH2 0xB58 PUSH2 0xBFC JUMP JUMPDEST PUSH1 0x1 PUSH1 0x1 PUSH1 0xA0 SHL SUB AND EQ PUSH2 0xB7E JUMPI PUSH1 0x40 MLOAD PUSH3 0x461BCD PUSH1 0xE5 SHL DUP2 MSTORE PUSH1 0x4 ADD PUSH2 0x3EF SWAP1 PUSH2 0x1BFB JUMP JUMPDEST PUSH1 0x0 DUP1 SLOAD PUSH1 0x40 MLOAD PUSH1 0x1 PUSH1 0x1 PUSH1 0xA0 SHL SUB SWAP1 SWAP2 AND SWAP1 PUSH32 0x8BE0079C531659141344CD1FD0A4F28419497F9722A3DAAFE3B4186F6B6457E0 SWAP1 DUP4 SWAP1 LOG3 PUSH1 0x0 DUP1 SLOAD PUSH1 0x1 PUSH1 0x1 PUSH1 0xA0 SHL SUB NOT AND SWAP1 SSTORE JUMP JUMPDEST PUSH1 0x1 PUSH1 0x1 PUSH1 0xA0 SHL SUB DUP2 AND PUSH1 0x0 SWAP1 DUP2 MSTORE PUSH1 0x6 PUSH1 0x20 MSTORE PUSH1 0x40 DUP2 KECCAK256 PUSH1 0xA DUP2 ADD SLOAD PUSH1 0x9 SWAP1 SWAP2 ADD SLOAD PUSH2 0xBF5 SWAP1 DUP3 PUSH2 0x145D JUMP JUMPDEST SWAP4 SWAP3 POP POP POP JUMP JUMPDEST PUSH1 0x0 SLOAD PUSH1 0x1 PUSH1 0x1 PUSH1 0xA0 SHL SUB AND SWAP1 JUMP JUMPDEST PUSH1 0x1 DUP1 SLOAD PUSH1 0x40 DUP1 MLOAD PUSH1 0x20 PUSH1 0x2 DUP5 DUP7 AND ISZERO PUSH2 0x100 MUL PUSH1 0x0 NOT ADD SWAP1 SWAP5 AND SWAP4 SWAP1 SWAP4 DIV PUSH1 0x1F DUP2 ADD DUP5 SWAP1 DIV DUP5 MUL DUP3 ADD DUP5 ADD SWAP1 SWAP3 MSTORE DUP2 DUP2 MSTORE SWAP3 SWAP2 DUP4 ADD DUP3 DUP3 DUP1 ISZERO PUSH2 0xC90 JUMPI DUP1 PUSH1 0x1F LT PUSH2 0xC65 JUMPI PUSH2 0x100 DUP1 DUP4 SLOAD DIV MUL DUP4 MSTORE SWAP2 PUSH1 0x20 ADD SWAP2 PUSH2 0xC90 JUMP JUMPDEST DUP3 ADD SWAP2 SWAP1 PUSH1 0x0 MSTORE PUSH1 0x20 PUSH1 0x0 KECCAK256 SWAP1 JUMPDEST DUP2 SLOAD DUP2 MSTORE SWAP1 PUSH1 0x1 ADD SWAP1 PUSH1 0x20 ADD DUP1 DUP4 GT PUSH2 0xC73 JUMPI DUP3 SWAP1 SUB PUSH1 0x1F AND DUP3 ADD SWAP2 JUMPDEST POP POP POP POP POP DUP2 JUMP JUMPDEST PUSH1 0x1 PUSH1 0x1 PUSH1 0xA0 SHL SUB SWAP1 DUP2 AND PUSH1 0x0 SWAP1 DUP2 MSTORE PUSH1 0x6 PUSH1 0x20 DUP2 DUP2 MSTORE PUSH1 0x40 SWAP3 DUP4 SWAP1 KECCAK256 DUP4 MLOAD PUSH2 0x1C0 DUP2 ADD DUP6 MSTORE DUP2 SLOAD DUP7 AND DUP2 MSTORE PUSH1 0x1 DUP3 ADD SLOAD DUP7 AND SWAP3 DUP2 ADD SWAP3 SWAP1 SWAP3 MSTORE PUSH1 0x2 DUP2 ADD SLOAD DUP6 AND SWAP4 DUP3 ADD SWAP4 SWAP1 SWAP4 MSTORE PUSH1 0x3 DUP4 ADD SLOAD SWAP1 SWAP4 AND PUSH1 0x60 DUP5 ADD MSTORE PUSH1 0x4 DUP3 ADD SLOAD PUSH1 0x80 DUP5 ADD MSTORE PUSH1 0x5 DUP3 ADD SLOAD PUSH1 0xA0 DUP5 ADD MSTORE DUP2 ADD SLOAD PUSH1 0xC0 DUP4 ADD MSTORE PUSH1 0x7 DUP2 ADD SLOAD PUSH1 0xE0 DUP4 ADD MSTORE PUSH1 0x8 DUP2 ADD SLOAD PUSH2 0x100 DUP4 ADD MSTORE PUSH1 0x9 DUP2 ADD SLOAD PUSH2 0x120 DUP4 ADD MSTORE PUSH1 0xA DUP2 ADD SLOAD PUSH2 0x140 DUP4 ADD DUP2 SWAP1 MSTORE PUSH1 0xB DUP3 ADD SLOAD PUSH2 0x160 DUP5 ADD MSTORE PUSH1 0xC DUP3 ADD SLOAD PUSH2 0x180 DUP5 ADD MSTORE PUSH1 0xD SWAP1 SWAP2 ADD SLOAD PUSH2 0x1A0 SWAP1 SWAP3 ADD SWAP2 SWAP1 SWAP2 MSTORE SWAP1 JUMP JUMPDEST PUSH1 0x1 PUSH1 0x1 PUSH1 0xA0 SHL SUB DUP2 AND PUSH1 0x0 SWAP1 DUP2 MSTORE PUSH1 0x6 PUSH1 0x20 MSTORE PUSH1 0x40 DUP2 KECCAK256 PUSH1 0x4 ADD SLOAD TIMESTAMP LT DUP1 ISZERO SWAP1 PUSH2 0xDA5 JUMPI POP PUSH1 0x1 PUSH1 0x1 PUSH1 0xA0 SHL SUB DUP3 AND PUSH1 0x0 SWAP1 DUP2 MSTORE PUSH1 0x6 PUSH1 0x20 MSTORE PUSH1 0x40 SWAP1 KECCAK256 PUSH1 0x5 ADD SLOAD TIMESTAMP GT ISZERO JUMPDEST DUP1 ISZERO PUSH2 0xB39 JUMPI POP POP PUSH1 0x1 PUSH1 0x1 PUSH1 0xA0 SHL SUB AND PUSH1 0x0 SWAP1 DUP2 MSTORE PUSH1 0x6 PUSH1 0x20 DUP2 SWAP1 MSTORE PUSH1 0x40 SWAP1 SWAP2 KECCAK256 ADD SLOAD ISZERO SWAP1 JUMP JUMPDEST PUSH2 0xDD6 DUP3 PUSH2 0xD5F JUMP JUMPDEST PUSH2 0xDF2 JUMPI PUSH1 0x40 MLOAD PUSH3 0x461BCD PUSH1 0xE5 SHL DUP2 MSTORE PUSH1 0x4 ADD PUSH2 0x3EF SWAP1 PUSH2 0x1B15 JUMP JUMPDEST PUSH1 0x1 PUSH1 0x1 PUSH1 0xA0 SHL SUB DUP1 DUP4 AND PUSH1 0x0 SWAP1 DUP2 MSTORE PUSH1 0x6 PUSH1 0x20 DUP2 DUP2 MSTORE PUSH1 0x40 DUP1 DUP5 KECCAK256 DUP2 MLOAD PUSH2 0x1C0 DUP2 ADD DUP4 MSTORE DUP2 SLOAD DUP8 AND DUP2 MSTORE PUSH1 0x1 DUP3 ADD SLOAD DUP8 AND SWAP4 DUP2 ADD SWAP4 SWAP1 SWAP4 MSTORE PUSH1 0x2 DUP2 ADD SLOAD DUP7 AND SWAP2 DUP4 ADD SWAP2 SWAP1 SWAP2 MSTORE PUSH1 0x3 DUP2 ADD SLOAD SWAP1 SWAP5 AND PUSH1 0x60 DUP3 ADD MSTORE PUSH1 0x4 DUP5 ADD SLOAD PUSH1 0x80 DUP3 ADD MSTORE PUSH1 0x5 DUP5 ADD SLOAD PUSH1 0xA0 DUP3 ADD MSTORE SWAP1 DUP4 ADD SLOAD PUSH1 0xC0 DUP3 ADD MSTORE PUSH1 0x7 DUP4 ADD SLOAD PUSH1 0xE0 DUP3 ADD MSTORE PUSH1 0x8 DUP4 ADD SLOAD PUSH2 0x100 DUP3 ADD MSTORE PUSH1 0x9 DUP4 ADD SLOAD PUSH2 0x120 DUP3 ADD MSTORE PUSH1 0xA DUP4 ADD SLOAD PUSH2 0x140 DUP3 ADD MSTORE PUSH1 0xB DUP4 ADD SLOAD PUSH2 0x160 DUP3 ADD MSTORE PUSH1 0xC DUP4 ADD SLOAD PUSH2 0x180 DUP3 ADD MSTORE PUSH1 0xD SWAP1 SWAP3 ADD SLOAD PUSH2 0x1A0 DUP4 ADD MSTORE TIMESTAMP SWAP1 PUSH2 0xEBB DUP6 PUSH2 0xBC8 JUMP JUMPDEST SWAP1 POP PUSH1 0x0 DUP1 DUP7 PUSH1 0x1 PUSH1 0x1 PUSH1 0xA0 SHL SUB AND PUSH4 0x313CE567 PUSH1 0x40 MLOAD DUP2 PUSH4 0xFFFFFFFF AND PUSH1 0xE0 SHL DUP2 MSTORE PUSH1 0x4 ADD PUSH1 0x20 PUSH1 0x40 MLOAD DUP1 DUP4 SUB DUP2 DUP7 DUP1 EXTCODESIZE ISZERO DUP1 ISZERO PUSH2 0xEF9 JUMPI PUSH1 0x0 DUP1 REVERT JUMPDEST POP GAS STATICCALL ISZERO DUP1 ISZERO PUSH2 0xF0D JUMPI RETURNDATASIZE PUSH1 0x0 DUP1 RETURNDATACOPY RETURNDATASIZE PUSH1 0x0 REVERT JUMPDEST POP POP POP POP PUSH1 0x40 MLOAD RETURNDATASIZE PUSH1 0x1F NOT PUSH1 0x1F DUP3 ADD AND DUP3 ADD DUP1 PUSH1 0x40 MSTORE POP DUP2 ADD SWAP1 PUSH2 0xF31 SWAP2 SWAP1 PUSH2 0x17D9 JUMP JUMPDEST PUSH1 0xFF AND SWAP1 POP DUP5 PUSH1 0xE0 ADD MLOAD DUP4 GT ISZERO DUP1 PUSH2 0xF49 JUMPI POP DUP6 DUP4 GT ISZERO JUMPDEST ISZERO PUSH2 0xF77 JUMPI PUSH1 0x1 PUSH1 0x1 PUSH1 0xA0 SHL SUB DUP8 AND PUSH1 0x0 SWAP1 DUP2 MSTORE PUSH1 0x6 PUSH1 0x20 DUP2 SWAP1 MSTORE PUSH1 0x40 SWAP1 SWAP2 KECCAK256 ADD DUP5 SWAP1 SSTORE SWAP2 SWAP5 POP DUP5 SWAP2 PUSH1 0x1 SWAP2 POP JUMPDEST DUP2 DUP1 PUSH2 0xF97 JUMPI POP DUP5 PUSH1 0xE0 ADD MLOAD DUP7 LT ISZERO DUP1 ISZERO PUSH2 0xF97 JUMPI POP DUP5 PUSH2 0x100 ADD MLOAD DUP7 GT ISZERO JUMPDEST ISZERO PUSH2 0x10AE JUMPI PUSH2 0x140 DUP6 ADD MLOAD PUSH2 0xFAC SWAP1 DUP8 PUSH2 0x1485 JUMP JUMPDEST PUSH1 0x6 PUSH1 0x0 DUP10 PUSH1 0x1 PUSH1 0x1 PUSH1 0xA0 SHL SUB AND PUSH1 0x1 PUSH1 0x1 PUSH1 0xA0 SHL SUB AND DUP2 MSTORE PUSH1 0x20 ADD SWAP1 DUP2 MSTORE PUSH1 0x20 ADD PUSH1 0x0 KECCAK256 PUSH1 0xA ADD DUP2 SWAP1 SSTORE POP PUSH1 0x0 PUSH2 0xFF9 DUP3 PUSH1 0xA EXP PUSH2 0x8E9 DUP9 PUSH2 0x160 ADD MLOAD DUP11 PUSH2 0x132D SWAP1 SWAP2 SWAP1 PUSH4 0xFFFFFFFF AND JUMP JUMPDEST PUSH1 0x40 DUP8 ADD MLOAD SWAP1 SWAP2 POP PUSH1 0x1 PUSH1 0x1 PUSH1 0xA0 SHL SUB AND PUSH2 0x1033 JUMPI DUP1 CALLVALUE LT ISZERO PUSH2 0x102E JUMPI PUSH1 0x40 MLOAD PUSH3 0x461BCD PUSH1 0xE5 SHL DUP2 MSTORE PUSH1 0x4 ADD PUSH2 0x3EF SWAP1 PUSH2 0x1B4C JUMP JUMPDEST PUSH2 0x104D JUMP JUMPDEST PUSH1 0x40 DUP7 ADD MLOAD PUSH2 0x104D SWAP1 PUSH1 0x1 PUSH1 0x1 PUSH1 0xA0 SHL SUB AND CALLER ADDRESS DUP5 PUSH2 0x12CF JUMP JUMPDEST PUSH2 0x1061 PUSH1 0x1 PUSH1 0x1 PUSH1 0xA0 SHL SUB DUP10 AND CALLER DUP10 PUSH2 0x143A JUMP JUMPDEST CALLER PUSH1 0x1 PUSH1 0x1 PUSH1 0xA0 SHL SUB AND DUP9 PUSH1 0x1 PUSH1 0x1 PUSH1 0xA0 SHL SUB AND PUSH32 0xD0C183BE209F70036B50DE16805D88249019E1288D7B77EF877710999C0D08E6 DUP10 PUSH1 0x40 MLOAD PUSH2 0x10A4 SWAP2 SWAP1 PUSH2 0x1E0B JUMP JUMPDEST PUSH1 0x40 MLOAD DUP1 SWAP2 SUB SWAP1 LOG3 POP JUMPDEST POP POP POP POP POP POP POP JUMP JUMPDEST PUSH1 0x1 PUSH1 0x1 PUSH1 0xA0 SHL SUB DUP1 DUP3 AND PUSH1 0x0 SWAP1 DUP2 MSTORE PUSH1 0x6 PUSH1 0x20 DUP2 DUP2 MSTORE PUSH1 0x40 DUP1 DUP5 KECCAK256 DUP2 MLOAD PUSH2 0x1C0 DUP2 ADD DUP4 MSTORE DUP2 SLOAD DUP8 AND DUP2 MSTORE PUSH1 0x1 DUP3 ADD SLOAD DUP8 AND SWAP4 DUP2 ADD SWAP4 SWAP1 SWAP4 MSTORE PUSH1 0x2 DUP2 ADD SLOAD DUP7 AND SWAP2 DUP4 ADD SWAP2 SWAP1 SWAP2 MSTORE PUSH1 0x3 DUP2 ADD SLOAD SWAP1 SWAP5 AND PUSH1 0x60 DUP3 ADD MSTORE PUSH1 0x4 DUP5 ADD SLOAD PUSH1 0x80 DUP3 ADD DUP2 SWAP1 MSTORE PUSH1 0x5 DUP6 ADD SLOAD PUSH1 0xA0 DUP4 ADD MSTORE SWAP2 DUP5 ADD SLOAD PUSH1 0xC0 DUP3 ADD MSTORE PUSH1 0x7 DUP5 ADD SLOAD PUSH1 0xE0 DUP3 ADD MSTORE PUSH1 0x8 DUP5 ADD SLOAD PUSH2 0x100 DUP3 ADD MSTORE PUSH1 0x9 DUP5 ADD SLOAD PUSH2 0x120 DUP3 ADD MSTORE PUSH1 0xA DUP5 ADD SLOAD PUSH2 0x140 DUP3 ADD MSTORE PUSH1 0xB DUP5 ADD SLOAD PUSH2 0x160 DUP3 ADD MSTORE PUSH1 0xC DUP5 ADD SLOAD PUSH2 0x180 DUP3 ADD MSTORE PUSH1 0xD SWAP1 SWAP4 ADD SLOAD PUSH2 0x1A0 DUP5 ADD MSTORE SWAP1 SWAP2 SWAP1 TIMESTAMP SWAP1 DUP2 LT ISZERO PUSH2 0x118E JUMPI PUSH1 0x1 SWAP3 POP POP POP PUSH2 0x3C4 JUMP JUMPDEST DUP2 PUSH1 0x80 ADD MLOAD DUP2 LT ISZERO DUP1 ISZERO PUSH2 0x11A6 JUMPI POP DUP2 PUSH1 0xA0 ADD MLOAD DUP2 GT ISZERO JUMPDEST DUP1 ISZERO PUSH2 0x11B4 JUMPI POP PUSH1 0xC0 DUP3 ADD MLOAD ISZERO JUMPDEST ISZERO PUSH2 0x11C4 JUMPI PUSH1 0x2 SWAP3 POP POP POP PUSH2 0x3C4 JUMP JUMPDEST DUP2 PUSH1 0xC0 ADD MLOAD DUP2 GT ISZERO PUSH2 0x11DB JUMPI PUSH1 0x3 SWAP3 POP POP POP PUSH2 0x3C4 JUMP JUMPDEST POP PUSH1 0x4 SWAP4 SWAP3 POP POP POP JUMP JUMPDEST PUSH2 0x11ED PUSH2 0x1459 JUMP JUMPDEST PUSH1 0x1 PUSH1 0x1 PUSH1 0xA0 SHL SUB AND PUSH2 0x11FE PUSH2 0xBFC JUMP JUMPDEST PUSH1 0x1 PUSH1 0x1 PUSH1 0xA0 SHL SUB AND EQ PUSH2 0x1224 JUMPI PUSH1 0x40 MLOAD PUSH3 0x461BCD PUSH1 0xE5 SHL DUP2 MSTORE PUSH1 0x4 ADD PUSH2 0x3EF SWAP1 PUSH2 0x1BFB JUMP JUMPDEST PUSH1 0x1 PUSH1 0x1 PUSH1 0xA0 SHL SUB DUP2 AND PUSH2 0x124A JUMPI PUSH1 0x40 MLOAD PUSH3 0x461BCD PUSH1 0xE5 SHL DUP2 MSTORE PUSH1 0x4 ADD PUSH2 0x3EF SWAP1 PUSH2 0x1923 JUMP JUMPDEST PUSH1 0x0 DUP1 SLOAD PUSH1 0x40 MLOAD PUSH1 0x1 PUSH1 0x1 PUSH1 0xA0 SHL SUB DUP1 DUP6 AND SWAP4 SWAP3 AND SWAP2 PUSH32 0x8BE0079C531659141344CD1FD0A4F28419497F9722A3DAAFE3B4186F6B6457E0 SWAP2 LOG3 PUSH1 0x0 DUP1 SLOAD PUSH1 0x1 PUSH1 0x1 PUSH1 0xA0 SHL SUB NOT AND PUSH1 0x1 PUSH1 0x1 PUSH1 0xA0 SHL SUB SWAP3 SWAP1 SWAP3 AND SWAP2 SWAP1 SWAP2 OR SWAP1 SSTORE JUMP JUMPDEST PUSH32 0x0 DUP2 JUMP JUMPDEST EXTCODESIZE ISZERO ISZERO SWAP1 JUMP JUMPDEST PUSH2 0x1327 DUP5 PUSH4 0x23B872DD PUSH1 0xE0 SHL DUP6 DUP6 DUP6 PUSH1 0x40 MLOAD PUSH1 0x24 ADD PUSH2 0x12F0 SWAP4 SWAP3 SWAP2 SWAP1 PUSH2 0x183A JUMP JUMPDEST PUSH1 0x40 DUP1 MLOAD PUSH1 0x1F NOT DUP2 DUP5 SUB ADD DUP2 MSTORE SWAP2 SWAP1 MSTORE PUSH1 0x20 DUP2 ADD DUP1 MLOAD PUSH1 0x1 PUSH1 0x1 PUSH1 0xE0 SHL SUB AND PUSH1 0x1 PUSH1 0x1 PUSH1 0xE0 SHL SUB NOT SWAP1 SWAP4 AND SWAP3 SWAP1 SWAP3 OR SWAP1 SWAP2 MSTORE PUSH2 0x14AA JUMP JUMPDEST POP POP POP POP JUMP JUMPDEST PUSH1 0x0 DUP3 PUSH2 0x133C JUMPI POP PUSH1 0x0 PUSH2 0xB39 JUMP JUMPDEST DUP3 DUP3 MUL DUP3 DUP5 DUP3 DUP2 PUSH2 0x1349 JUMPI INVALID JUMPDEST DIV EQ PUSH2 0xBF5 JUMPI PUSH1 0x40 MLOAD PUSH3 0x461BCD PUSH1 0xE5 SHL DUP2 MSTORE PUSH1 0x4 ADD PUSH2 0x3EF SWAP1 PUSH2 0x1B83 JUMP JUMPDEST PUSH1 0x0 DUP1 DUP3 GT PUSH2 0x1388 JUMPI PUSH1 0x40 MLOAD PUSH3 0x461BCD PUSH1 0xE5 SHL DUP2 MSTORE PUSH1 0x4 ADD PUSH2 0x3EF SWAP1 PUSH2 0x1AB1 JUMP JUMPDEST DUP2 DUP4 DUP2 PUSH2 0x1391 JUMPI INVALID JUMPDEST DIV SWAP4 SWAP3 POP POP POP JUMP JUMPDEST DUP1 SELFBALANCE LT ISZERO PUSH2 0x13B9 JUMPI PUSH1 0x40 MLOAD PUSH3 0x461BCD PUSH1 0xE5 SHL DUP2 MSTORE PUSH1 0x4 ADD PUSH2 0x3EF SWAP1 PUSH2 0x1A34 JUMP JUMPDEST PUSH1 0x0 DUP3 PUSH1 0x1 PUSH1 0x1 PUSH1 0xA0 SHL SUB AND DUP3 PUSH1 0x40 MLOAD PUSH2 0x13D2 SWAP1 PUSH2 0x1823 JUMP JUMPDEST PUSH1 0x0 PUSH1 0x40 MLOAD DUP1 DUP4 SUB DUP2 DUP6 DUP8 GAS CALL SWAP3 POP POP POP RETURNDATASIZE DUP1 PUSH1 0x0 DUP2 EQ PUSH2 0x140F JUMPI PUSH1 0x40 MLOAD SWAP2 POP PUSH1 0x1F NOT PUSH1 0x3F RETURNDATASIZE ADD AND DUP3 ADD PUSH1 0x40 MSTORE RETURNDATASIZE DUP3 MSTORE RETURNDATASIZE PUSH1 0x0 PUSH1 0x20 DUP5 ADD RETURNDATACOPY PUSH2 0x1414 JUMP JUMPDEST PUSH1 0x60 SWAP2 POP JUMPDEST POP POP SWAP1 POP DUP1 PUSH2 0x1435 JUMPI PUSH1 0x40 MLOAD PUSH3 0x461BCD PUSH1 0xE5 SHL DUP2 MSTORE PUSH1 0x4 ADD PUSH2 0x3EF SWAP1 PUSH2 0x19D7 JUMP JUMPDEST POP POP POP JUMP JUMPDEST PUSH2 0x1435 DUP4 PUSH4 0xA9059CBB PUSH1 0xE0 SHL DUP5 DUP5 PUSH1 0x40 MLOAD PUSH1 0x24 ADD PUSH2 0x12F0 SWAP3 SWAP2 SWAP1 PUSH2 0x185E JUMP JUMPDEST CALLER SWAP1 JUMP JUMPDEST PUSH1 0x0 DUP3 DUP3 GT ISZERO PUSH2 0x147F JUMPI PUSH1 0x40 MLOAD PUSH3 0x461BCD PUSH1 0xE5 SHL DUP2 MSTORE PUSH1 0x4 ADD PUSH2 0x3EF SWAP1 PUSH2 0x19A0 JUMP JUMPDEST POP SWAP1 SUB SWAP1 JUMP JUMPDEST PUSH1 0x0 DUP3 DUP3 ADD DUP4 DUP2 LT ISZERO PUSH2 0xBF5 JUMPI PUSH1 0x40 MLOAD PUSH3 0x461BCD PUSH1 0xE5 SHL DUP2 MSTORE PUSH1 0x4 ADD PUSH2 0x3EF SWAP1 PUSH2 0x1969 JUMP JUMPDEST PUSH1 0x0 PUSH2 0x14FF DUP3 PUSH1 0x40 MLOAD DUP1 PUSH1 0x40 ADD PUSH1 0x40 MSTORE DUP1 PUSH1 0x20 DUP2 MSTORE PUSH1 0x20 ADD PUSH32 0x5361666545524332303A206C6F772D6C6576656C2063616C6C206661696C6564 DUP2 MSTORE POP DUP6 PUSH1 0x1 PUSH1 0x1 PUSH1 0xA0 SHL SUB AND PUSH2 0x1539 SWAP1 SWAP3 SWAP2 SWAP1 PUSH4 0xFFFFFFFF AND JUMP JUMPDEST DUP1 MLOAD SWAP1 SWAP2 POP ISZERO PUSH2 0x1435 JUMPI DUP1 DUP1 PUSH1 0x20 ADD SWAP1 MLOAD DUP2 ADD SWAP1 PUSH2 0x151D SWAP2 SWAP1 PUSH2 0x17B9 JUMP JUMPDEST PUSH2 0x1435 JUMPI PUSH1 0x40 MLOAD PUSH3 0x461BCD PUSH1 0xE5 SHL DUP2 MSTORE PUSH1 0x4 ADD PUSH2 0x3EF SWAP1 PUSH2 0x1C9E JUMP JUMPDEST PUSH1 0x60 PUSH2 0x1548 DUP5 DUP5 PUSH1 0x0 DUP6 PUSH2 0x1550 JUMP JUMPDEST SWAP5 SWAP4 POP POP POP POP JUMP JUMPDEST PUSH1 0x60 DUP3 SELFBALANCE LT ISZERO PUSH2 0x1572 JUMPI PUSH1 0x40 MLOAD PUSH3 0x461BCD PUSH1 0xE5 SHL DUP2 MSTORE PUSH1 0x4 ADD PUSH2 0x3EF SWAP1 PUSH2 0x1A6B JUMP JUMPDEST PUSH2 0x157B DUP6 PUSH2 0x12C9 JUMP JUMPDEST PUSH2 0x1597 JUMPI PUSH1 0x40 MLOAD PUSH3 0x461BCD PUSH1 0xE5 SHL DUP2 MSTORE PUSH1 0x4 ADD PUSH2 0x3EF SWAP1 PUSH2 0x1C67 JUMP JUMPDEST PUSH1 0x0 DUP1 DUP7 PUSH1 0x1 PUSH1 0x1 PUSH1 0xA0 SHL SUB AND DUP6 DUP8 PUSH1 0x40 MLOAD PUSH2 0x15B3 SWAP2 SWAP1 PUSH2 0x1807 JUMP JUMPDEST PUSH1 0x0 PUSH1 0x40 MLOAD DUP1 DUP4 SUB DUP2 DUP6 DUP8 GAS CALL SWAP3 POP POP POP RETURNDATASIZE DUP1 PUSH1 0x0 DUP2 EQ PUSH2 0x15F0 JUMPI PUSH1 0x40 MLOAD SWAP2 POP PUSH1 0x1F NOT PUSH1 0x3F RETURNDATASIZE ADD AND DUP3 ADD PUSH1 0x40 MSTORE RETURNDATASIZE DUP3 MSTORE RETURNDATASIZE PUSH1 0x0 PUSH1 0x20 DUP5 ADD RETURNDATACOPY PUSH2 0x15F5 JUMP JUMPDEST PUSH1 0x60 SWAP2 POP JUMPDEST POP SWAP2 POP SWAP2 POP PUSH2 0x1605 DUP3 DUP3 DUP7 PUSH2 0x1610 JUMP JUMPDEST SWAP8 SWAP7 POP POP POP POP POP POP POP JUMP JUMPDEST PUSH1 0x60 DUP4 ISZERO PUSH2 0x161F JUMPI POP DUP2 PUSH2 0xBF5 JUMP JUMPDEST DUP3 MLOAD ISZERO PUSH2 0x162F JUMPI DUP3 MLOAD DUP1 DUP5 PUSH1 0x20 ADD REVERT JUMPDEST DUP2 PUSH1 0x40 MLOAD PUSH3 0x461BCD PUSH1 0xE5 SHL DUP2 MSTORE PUSH1 0x4 ADD PUSH2 0x3EF SWAP2 SWAP1 PUSH2 0x1882 JUMP JUMPDEST PUSH1 0x40 MLOAD DUP1 PUSH2 0x1C0 ADD PUSH1 0x40 MSTORE DUP1 PUSH1 0x0 PUSH1 0x1 PUSH1 0x1 PUSH1 0xA0 SHL SUB AND DUP2 MSTORE PUSH1 0x20 ADD PUSH1 0x0 PUSH1 0x1 PUSH1 0x1 PUSH1 0xA0 SHL SUB AND DUP2 MSTORE PUSH1 0x20 ADD PUSH1 0x0 PUSH1 0x1 PUSH1 0x1 PUSH1 0xA0 SHL SUB AND DUP2 MSTORE PUSH1 0x20 ADD PUSH1 0x0 PUSH1 0x1 PUSH1 0x1 PUSH1 0xA0 SHL SUB AND DUP2 MSTORE PUSH1 0x20 ADD PUSH1 0x0 DUP2 MSTORE PUSH1 0x20 ADD PUSH1 0x0 DUP2 MSTORE PUSH1 0x20 ADD PUSH1 0x0 DUP2 MSTORE PUSH1 0x20 ADD PUSH1 0x0 DUP2 MSTORE PUSH1 0x20 ADD PUSH1 0x0 DUP2 MSTORE PUSH1 0x20 ADD PUSH1 0x0 DUP2 MSTORE PUSH1 0x20 ADD PUSH1 0x0 DUP2 MSTORE PUSH1 0x20 ADD PUSH1 0x0 DUP2 MSTORE PUSH1 0x20 ADD PUSH1 0x0 DUP2 MSTORE PUSH1 0x20 ADD PUSH1 0x0 DUP2 MSTORE POP SWAP1 JUMP JUMPDEST DUP1 CALLDATALOAD PUSH1 0x1 PUSH1 0x1 PUSH1 0xA0 SHL SUB DUP2 AND DUP2 EQ PUSH2 0x3C4 JUMPI PUSH1 0x0 DUP1 REVERT JUMPDEST PUSH1 0x0 PUSH1 0x20 DUP3 DUP5 SUB SLT ISZERO PUSH2 0x1704 JUMPI DUP1 DUP2 REVERT JUMPDEST PUSH2 0xBF5 DUP3 PUSH2 0x16DC JUMP JUMPDEST PUSH1 0x0 DUP1 PUSH1 0x0 DUP1 PUSH1 0x0 DUP1 PUSH1 0x0 DUP1 PUSH1 0x0 DUP1 PUSH2 0x140 DUP12 DUP14 SUB SLT ISZERO PUSH2 0x172C JUMPI DUP6 DUP7 REVERT JUMPDEST PUSH2 0x1735 DUP12 PUSH2 0x16DC JUMP JUMPDEST SWAP10 POP PUSH2 0x1743 PUSH1 0x20 DUP13 ADD PUSH2 0x16DC JUMP JUMPDEST SWAP9 POP PUSH2 0x1751 PUSH1 0x40 DUP13 ADD PUSH2 0x16DC JUMP JUMPDEST SWAP10 SWAP13 SWAP9 SWAP12 POP SWAP9 SWAP10 PUSH1 0x60 DUP2 ADD CALLDATALOAD SWAP10 POP PUSH1 0x80 DUP2 ADD CALLDATALOAD SWAP9 PUSH1 0xA0 DUP3 ADD CALLDATALOAD SWAP9 POP PUSH1 0xC0 DUP3 ADD CALLDATALOAD SWAP8 POP PUSH1 0xE0 DUP3 ADD CALLDATALOAD SWAP7 POP PUSH2 0x100 DUP3 ADD CALLDATALOAD SWAP6 POP PUSH2 0x120 SWAP1 SWAP2 ADD CALLDATALOAD SWAP4 POP SWAP2 POP POP JUMP JUMPDEST PUSH1 0x0 DUP1 PUSH1 0x40 DUP4 DUP6 SUB SLT ISZERO PUSH2 0x17A2 JUMPI DUP2 DUP3 REVERT JUMPDEST PUSH2 0x17AB DUP4 PUSH2 0x16DC JUMP JUMPDEST SWAP5 PUSH1 0x20 SWAP4 SWAP1 SWAP4 ADD CALLDATALOAD SWAP4 POP POP POP JUMP JUMPDEST PUSH1 0x0 PUSH1 0x20 DUP3 DUP5 SUB SLT ISZERO PUSH2 0x17CA JUMPI DUP1 DUP2 REVERT JUMPDEST DUP2 MLOAD DUP1 ISZERO ISZERO DUP2 EQ PUSH2 0xBF5 JUMPI DUP2 DUP3 REVERT JUMPDEST PUSH1 0x0 PUSH1 0x20 DUP3 DUP5 SUB SLT ISZERO PUSH2 0x17EA JUMPI DUP1 DUP2 REVERT JUMPDEST DUP2 MLOAD PUSH1 0xFF DUP2 AND DUP2 EQ PUSH2 0xBF5 JUMPI DUP2 DUP3 REVERT JUMPDEST PUSH1 0x1 PUSH1 0x1 PUSH1 0xA0 SHL SUB AND SWAP1 MSTORE JUMP JUMPDEST PUSH1 0x0 DUP3 MLOAD PUSH2 0x1819 DUP2 DUP5 PUSH1 0x20 DUP8 ADD PUSH2 0x1E14 JUMP JUMPDEST SWAP2 SWAP1 SWAP2 ADD SWAP3 SWAP2 POP POP JUMP JUMPDEST SWAP1 JUMP JUMPDEST PUSH1 0x1 PUSH1 0x1 PUSH1 0xA0 SHL SUB SWAP2 SWAP1 SWAP2 AND DUP2 MSTORE PUSH1 0x20 ADD SWAP1 JUMP JUMPDEST PUSH1 0x1 PUSH1 0x1 PUSH1 0xA0 SHL SUB SWAP4 DUP5 AND DUP2 MSTORE SWAP2 SWAP1 SWAP3 AND PUSH1 0x20 DUP3 ADD MSTORE PUSH1 0x40 DUP2 ADD SWAP2 SWAP1 SWAP2 MSTORE PUSH1 0x60 ADD SWAP1 JUMP JUMPDEST PUSH1 0x1 PUSH1 0x1 PUSH1 0xA0 SHL SUB SWAP3 SWAP1 SWAP3 AND DUP3 MSTORE PUSH1 0x20 DUP3 ADD MSTORE PUSH1 0x40 ADD SWAP1 JUMP JUMPDEST SWAP1 ISZERO ISZERO DUP2 MSTORE PUSH1 0x20 ADD SWAP1 JUMP JUMPDEST PUSH1 0x0 PUSH1 0x20 DUP3 MSTORE DUP3 MLOAD DUP1 PUSH1 0x20 DUP5 ADD MSTORE PUSH2 0x18A1 DUP2 PUSH1 0x40 DUP6 ADD PUSH1 0x20 DUP8 ADD PUSH2 0x1E14 JUMP JUMPDEST PUSH1 0x1F ADD PUSH1 0x1F NOT AND SWAP2 SWAP1 SWAP2 ADD PUSH1 0x40 ADD SWAP3 SWAP2 POP POP JUMP JUMPDEST PUSH1 0x20 DUP1 DUP3 MSTORE PUSH1 0x1A SWAP1 DUP3 ADD MSTORE PUSH32 0x506F6F6C3A20746F6B656E41646472657373206973207A65726F000000000000 PUSH1 0x40 DUP3 ADD MSTORE PUSH1 0x60 ADD SWAP1 JUMP JUMPDEST PUSH1 0x20 DUP1 DUP3 MSTORE PUSH1 0x19 SWAP1 DUP3 ADD MSTORE PUSH32 0x506F6F6C733A20616C7265616479207769746864726177656400000000000000 PUSH1 0x40 DUP3 ADD MSTORE PUSH1 0x60 ADD SWAP1 JUMP JUMPDEST PUSH1 0x20 DUP1 DUP3 MSTORE PUSH1 0x26 SWAP1 DUP3 ADD MSTORE PUSH32 0x4F776E61626C653A206E6577206F776E657220697320746865207A65726F2061 PUSH1 0x40 DUP3 ADD MSTORE PUSH6 0x646472657373 PUSH1 0xD0 SHL PUSH1 0x60 DUP3 ADD MSTORE PUSH1 0x80 ADD SWAP1 JUMP JUMPDEST PUSH1 0x20 DUP1 DUP3 MSTORE PUSH1 0x1B SWAP1 DUP3 ADD MSTORE PUSH32 0x536166654D6174683A206164646974696F6E206F766572666C6F770000000000 PUSH1 0x40 DUP3 ADD MSTORE PUSH1 0x60 ADD SWAP1 JUMP JUMPDEST PUSH1 0x20 DUP1 DUP3 MSTORE PUSH1 0x1E SWAP1 DUP3 ADD MSTORE PUSH32 0x536166654D6174683A207375627472616374696F6E206F766572666C6F770000 PUSH1 0x40 DUP3 ADD MSTORE PUSH1 0x60 ADD SWAP1 JUMP JUMPDEST PUSH1 0x20 DUP1 DUP3 MSTORE PUSH1 0x3A SWAP1 DUP3 ADD MSTORE PUSH32 0x416464726573733A20756E61626C6520746F2073656E642076616C75652C2072 PUSH1 0x40 DUP3 ADD MSTORE PUSH32 0x6563697069656E74206D61792068617665207265766572746564000000000000 PUSH1 0x60 DUP3 ADD MSTORE PUSH1 0x80 ADD SWAP1 JUMP JUMPDEST PUSH1 0x20 DUP1 DUP3 MSTORE PUSH1 0x1D SWAP1 DUP3 ADD MSTORE PUSH32 0x416464726573733A20696E73756666696369656E742062616C616E6365000000 PUSH1 0x40 DUP3 ADD MSTORE PUSH1 0x60 ADD SWAP1 JUMP JUMPDEST PUSH1 0x20 DUP1 DUP3 MSTORE PUSH1 0x26 SWAP1 DUP3 ADD MSTORE PUSH32 0x416464726573733A20696E73756666696369656E742062616C616E636520666F PUSH1 0x40 DUP3 ADD MSTORE PUSH6 0x1C8818D85B1B PUSH1 0xD2 SHL PUSH1 0x60 DUP3 ADD MSTORE PUSH1 0x80 ADD SWAP1 JUMP JUMPDEST PUSH1 0x20 DUP1 DUP3 MSTORE PUSH1 0x1A SWAP1 DUP3 ADD MSTORE PUSH32 0x536166654D6174683A206469766973696F6E206279207A65726F000000000000 PUSH1 0x40 DUP3 ADD MSTORE PUSH1 0x60 ADD SWAP1 JUMP JUMPDEST PUSH1 0x20 DUP1 DUP3 MSTORE PUSH1 0x13 SWAP1 DUP3 ADD MSTORE PUSH19 0x2837B7B6399D1034B9903737BA1037BBB732B9 PUSH1 0x69 SHL PUSH1 0x40 DUP3 ADD MSTORE PUSH1 0x60 ADD SWAP1 JUMP JUMPDEST PUSH1 0x20 DUP1 DUP3 MSTORE PUSH1 0x1C SWAP1 DUP3 ADD MSTORE PUSH32 0x506F6F6C733A206E6F742073746172746564206F7220636C6F73656400000000 PUSH1 0x40 DUP3 ADD MSTORE PUSH1 0x60 ADD SWAP1 JUMP JUMPDEST PUSH1 0x20 DUP1 DUP3 MSTORE PUSH1 0x17 SWAP1 DUP3 ADD MSTORE PUSH32 0x506F6F6C733A206E6F7420656E6F7567682076616C7565000000000000000000 PUSH1 0x40 DUP3 ADD MSTORE PUSH1 0x60 ADD SWAP1 JUMP JUMPDEST PUSH1 0x20 DUP1 DUP3 MSTORE PUSH1 0x21 SWAP1 DUP3 ADD MSTORE PUSH32 0x536166654D6174683A206D756C7469706C69636174696F6E206F766572666C6F PUSH1 0x40 DUP3 ADD MSTORE PUSH1 0x77 PUSH1 0xF8 SHL PUSH1 0x60 DUP3 ADD MSTORE PUSH1 0x80 ADD SWAP1 JUMP JUMPDEST PUSH1 0x20 DUP1 DUP3 MSTORE PUSH1 0x1F SWAP1 DUP3 ADD MSTORE PUSH32 0x506F6F6C3A20746F6B656E41646472657373206973206E6F7420455243323000 PUSH1 0x40 DUP3 ADD MSTORE PUSH1 0x60 ADD SWAP1 JUMP JUMPDEST PUSH1 0x20 DUP1 DUP3 MSTORE DUP2 DUP2 ADD MSTORE PUSH32 0x4F776E61626C653A2063616C6C6572206973206E6F7420746865206F776E6572 PUSH1 0x40 DUP3 ADD MSTORE PUSH1 0x60 ADD SWAP1 JUMP JUMPDEST PUSH1 0x20 DUP1 DUP3 MSTORE PUSH1 0x1A SWAP1 DUP3 ADD MSTORE PUSH32 0x506F6F6C3A20746965722073686F756C642062652031207E2034000000000000 PUSH1 0x40 DUP3 ADD MSTORE PUSH1 0x60 ADD SWAP1 JUMP JUMPDEST PUSH1 0x20 DUP1 DUP3 MSTORE PUSH1 0x1D SWAP1 DUP3 ADD MSTORE PUSH32 0x416464726573733A2063616C6C20746F206E6F6E2D636F6E7472616374000000 PUSH1 0x40 DUP3 ADD MSTORE PUSH1 0x60 ADD SWAP1 JUMP JUMPDEST PUSH1 0x20 DUP1 DUP3 MSTORE PUSH1 0x2A SWAP1 DUP3 ADD MSTORE PUSH32 0x5361666545524332303A204552433230206F7065726174696F6E20646964206E PUSH1 0x40 DUP3 ADD MSTORE PUSH10 0x1BDD081CDD58D8D95959 PUSH1 0xB2 SHL PUSH1 0x60 DUP3 ADD MSTORE PUSH1 0x80 ADD SWAP1 JUMP JUMPDEST PUSH1 0x20 DUP1 DUP3 MSTORE PUSH1 0x14 SWAP1 DUP3 ADD MSTORE PUSH20 0x141BDBDB1CCE881A5CC81B9BDD0818DB1BDCD959 PUSH1 0x62 SHL PUSH1 0x40 DUP3 ADD MSTORE PUSH1 0x60 ADD SWAP1 JUMP JUMPDEST PUSH1 0x20 DUP1 DUP3 MSTORE PUSH1 0x1B SWAP1 DUP3 ADD MSTORE PUSH32 0x506F6F6C3A207265636569766557616C6C6574206973207A65726F0000000000 PUSH1 0x40 DUP3 ADD MSTORE PUSH1 0x60 ADD SWAP1 JUMP JUMPDEST PUSH1 0x0 PUSH2 0x1C0 DUP3 ADD SWAP1 POP PUSH2 0x1D61 DUP3 DUP5 MLOAD PUSH2 0x17FA JUMP JUMPDEST PUSH1 0x20 DUP4 ADD MLOAD PUSH2 0x1D73 PUSH1 0x20 DUP5 ADD DUP3 PUSH2 0x17FA JUMP JUMPDEST POP PUSH1 0x40 DUP4 ADD MLOAD PUSH2 0x1D86 PUSH1 0x40 DUP5 ADD DUP3 PUSH2 0x17FA JUMP JUMPDEST POP PUSH1 0x60 DUP4 ADD MLOAD PUSH2 0x1D99 PUSH1 0x60 DUP5 ADD DUP3 PUSH2 0x17FA JUMP JUMPDEST POP PUSH1 0x80 DUP4 DUP2 ADD MLOAD SWAP1 DUP4 ADD MSTORE PUSH1 0xA0 DUP1 DUP5 ADD MLOAD SWAP1 DUP4 ADD MSTORE PUSH1 0xC0 DUP1 DUP5 ADD MLOAD SWAP1 DUP4 ADD MSTORE PUSH1 0xE0 DUP1 DUP5 ADD MLOAD SWAP1 DUP4 ADD MSTORE PUSH2 0x100 DUP1 DUP5 ADD MLOAD SWAP1 DUP4 ADD MSTORE PUSH2 0x120 DUP1 DUP5 ADD MLOAD SWAP1 DUP4 ADD MSTORE PUSH2 0x140 DUP1 DUP5 ADD MLOAD SWAP1 DUP4 ADD MSTORE PUSH2 0x160 DUP1 DUP5 ADD MLOAD SWAP1 DUP4 ADD MSTORE PUSH2 0x180 DUP1 DUP5 ADD MLOAD SWAP1 DUP4 ADD MSTORE PUSH2 0x1A0 SWAP3 DUP4 ADD MLOAD SWAP3 SWAP1 SWAP2 ADD SWAP2 SWAP1 SWAP2 MSTORE SWAP1 JUMP JUMPDEST SWAP1 DUP2 MSTORE PUSH1 0x20 ADD SWAP1 JUMP JUMPDEST PUSH1 0x0 JUMPDEST DUP4 DUP2 LT ISZERO PUSH2 0x1E2F JUMPI DUP2 DUP2 ADD MLOAD DUP4 DUP3 ADD MSTORE PUSH1 0x20 ADD PUSH2 0x1E17 JUMP JUMPDEST DUP4 DUP2 GT ISZERO PUSH2 0x1327 JUMPI POP POP PUSH1 0x0 SWAP2 ADD MSTORE JUMP INVALID LOG2 PUSH5 0x6970667358 0x22 SLT KECCAK256 0xE4 POP 0x5E PUSH10 0x5B47E96B029CE1A322E8 0x4F PUSH14 0xF86351ABE2ED6F54073A22B61B09 0xB4 SHL PUSH5 0x736F6C6343 STOP SMOD MOD STOP CALLER "
        },
        "gasEstimates": {
          "creation": {
            "codeDepositCost": "1559600",
            "executionCost": "infinite",
            "totalCost": "infinite"
          },
          "external": {
            "NAME()": "infinite",
            "addPool(address,address,address,uint256,uint256,uint256,uint256,uint256,uint256,uint256)": "infinite",
            "bstr()": "infinite",
            "buy(address,uint256)": "infinite",
            "getPoolInfo(address)": "infinite",
            "getRemainToken(address)": "infinite",
            "getTokenActiveStatus(address)": "infinite",
            "getTotalSold(address)": "12163",
            "getTotalSupply(address)": "12119",
            "isActivated(address)": "3233",
            "isClosed(address)": "2269",
            "owner()": "1093",
            "renounceOwnership()": "24322",
            "rewardWallet()": "infinite",
            "transferOwnership(address)": "24556",
            "withdraw(address)": "infinite"
          }
        },
        "methodIdentifiers": {
          "NAME()": "a3f4df7e",
          "addPool(address,address,address,uint256,uint256,uint256,uint256,uint256,uint256,uint256)": "2037f353",
          "bstr()": "51414967",
          "buy(address,uint256)": "cce7ec13",
          "getPoolInfo(address)": "06bfa938",
          "getRemainToken(address)": "89b31277",
          "getTokenActiveStatus(address)": "cebe5721",
          "getTotalSold(address)": "aca7376d",
          "getTotalSupply(address)": "68da10ae",
          "isActivated(address)": "c9faa7c5",
          "isClosed(address)": "6943b017",
          "owner()": "8da5cb5b",
          "renounceOwnership()": "715018a6",
          "rewardWallet()": "fb75b2c7",
          "transferOwnership(address)": "f2fde38b",
          "withdraw(address)": "51cff8d9"
        }
      },
      "storageLayout": {
        "storage": [
          {
            "astId": 27,
            "contract": "contracts/LaunchpadPool.sol:BeamStarterLaunchPad",
            "label": "_owner",
            "offset": 0,
            "slot": "0",
            "type": "t_address"
          },
          {
            "astId": 1478,
            "contract": "contracts/LaunchpadPool.sol:BeamStarterLaunchPad",
            "label": "NAME",
            "offset": 0,
            "slot": "1",
            "type": "t_string_storage"
          },
          {
            "astId": 1505,
            "contract": "contracts/LaunchpadPool.sol:BeamStarterLaunchPad",
            "label": "tiers",
            "offset": 0,
            "slot": "2",
            "type": "t_array(t_uint256)4_storage"
          },
          {
            "astId": 1565,
            "contract": "contracts/LaunchpadPool.sol:BeamStarterLaunchPad",
            "label": "pools",
            "offset": 0,
            "slot": "6",
            "type": "t_mapping(t_address,t_struct(IDOPool)1561_storage)"
          }
        ],
        "types": {
          "t_address": {
            "encoding": "inplace",
            "label": "address",
            "numberOfBytes": "20"
          },
          "t_array(t_uint256)4_storage": {
            "base": "t_uint256",
            "encoding": "inplace",
            "label": "uint256[4]",
            "numberOfBytes": "128"
          },
          "t_mapping(t_address,t_struct(IDOPool)1561_storage)": {
            "encoding": "mapping",
            "key": "t_address",
            "label": "mapping(address => struct BeamStarterLaunchPad.IDOPool)",
            "numberOfBytes": "32",
            "value": "t_struct(IDOPool)1561_storage"
          },
          "t_string_storage": {
            "encoding": "bytes",
            "label": "string",
            "numberOfBytes": "32"
          },
          "t_struct(IDOPool)1561_storage": {
            "encoding": "inplace",
            "label": "struct BeamStarterLaunchPad.IDOPool",
            "members": [
              {
                "astId": 1534,
                "contract": "contracts/LaunchpadPool.sol:BeamStarterLaunchPad",
                "label": "tokenOwner",
                "offset": 0,
                "slot": "0",
                "type": "t_address"
              },
              {
                "astId": 1536,
                "contract": "contracts/LaunchpadPool.sol:BeamStarterLaunchPad",
                "label": "tokenAddress",
                "offset": 0,
                "slot": "1",
                "type": "t_address"
              },
              {
                "astId": 1538,
                "contract": "contracts/LaunchpadPool.sol:BeamStarterLaunchPad",
                "label": "receiveToken",
                "offset": 0,
                "slot": "2",
                "type": "t_address"
              },
              {
                "astId": 1540,
                "contract": "contracts/LaunchpadPool.sol:BeamStarterLaunchPad",
                "label": "receiveWallet",
                "offset": 0,
                "slot": "3",
                "type": "t_address"
              },
              {
                "astId": 1542,
                "contract": "contracts/LaunchpadPool.sol:BeamStarterLaunchPad",
                "label": "startTime",
                "offset": 0,
                "slot": "4",
                "type": "t_uint256"
              },
              {
                "astId": 1544,
                "contract": "contracts/LaunchpadPool.sol:BeamStarterLaunchPad",
                "label": "endTime",
                "offset": 0,
                "slot": "5",
                "type": "t_uint256"
              },
              {
                "astId": 1546,
                "contract": "contracts/LaunchpadPool.sol:BeamStarterLaunchPad",
                "label": "closeTime",
                "offset": 0,
                "slot": "6",
                "type": "t_uint256"
              },
              {
                "astId": 1548,
                "contract": "contracts/LaunchpadPool.sol:BeamStarterLaunchPad",
                "label": "minPurchase",
                "offset": 0,
                "slot": "7",
                "type": "t_uint256"
              },
              {
                "astId": 1550,
                "contract": "contracts/LaunchpadPool.sol:BeamStarterLaunchPad",
                "label": "maxPurchase",
                "offset": 0,
                "slot": "8",
                "type": "t_uint256"
              },
              {
                "astId": 1552,
                "contract": "contracts/LaunchpadPool.sol:BeamStarterLaunchPad",
                "label": "totalToken",
                "offset": 0,
                "slot": "9",
                "type": "t_uint256"
              },
              {
                "astId": 1554,
                "contract": "contracts/LaunchpadPool.sol:BeamStarterLaunchPad",
                "label": "totalSold",
                "offset": 0,
                "slot": "10",
                "type": "t_uint256"
              },
              {
                "astId": 1556,
                "contract": "contracts/LaunchpadPool.sol:BeamStarterLaunchPad",
                "label": "price",
                "offset": 0,
                "slot": "11",
                "type": "t_uint256"
              },
              {
                "astId": 1558,
                "contract": "contracts/LaunchpadPool.sol:BeamStarterLaunchPad",
                "label": "tier",
                "offset": 0,
                "slot": "12",
                "type": "t_uint256"
              },
              {
                "astId": 1560,
                "contract": "contracts/LaunchpadPool.sol:BeamStarterLaunchPad",
                "label": "withdrawTime",
                "offset": 0,
                "slot": "13",
                "type": "t_uint256"
              }
            ],
            "numberOfBytes": "448"
          },
          "t_uint256": {
            "encoding": "inplace",
            "label": "uint256",
            "numberOfBytes": "32"
          }
        }
      },
      "userdoc": {
        "kind": "user",
        "methods": {},
        "version": 1
      }
    }
  }
}