{
  "_format": "hh-sol-artifact-1",
  "contractName": "PERCToken",
  "sourceName": "contracts/Token.sol",
  "abi": [
    {
      "inputs": [],
      "stateMutability": "nonpayable",
      "type": "constructor"
    },
    {
      "anonymous": false,
      "inputs": [
        {
          "indexed": true,
          "internalType": "address",
          "name": "owner",
          "type": "address"
        },
        {
          "indexed": true,
          "internalType": "address",
          "name": "spender",
          "type": "address"
        },
        {
          "indexed": false,
          "internalType": "uint256",
          "name": "value",
          "type": "uint256"
        }
      ],
      "name": "Approval",
      "type": "event"
    },
    {
      "anonymous": false,
      "inputs": [
        {
          "indexed": true,
          "internalType": "address",
          "name": "previousOwner",
          "type": "address"
        },
        {
          "indexed": true,
          "internalType": "address",
          "name": "newOwner",
          "type": "address"
        }
      ],
      "name": "OwnershipTransferred",
      "type": "event"
    },
    {
      "anonymous": false,
      "inputs": [
        {
          "indexed": true,
          "internalType": "address",
          "name": "from",
          "type": "address"
        },
        {
          "indexed": true,
          "internalType": "address",
          "name": "to",
          "type": "address"
        },
        {
          "indexed": false,
          "internalType": "uint256",
          "name": "value",
          "type": "uint256"
        }
      ],
      "name": "Transfer",
      "type": "event"
    },
    {
      "inputs": [
        {
          "internalType": "address",
          "name": "owner",
          "type": "address"
        },
        {
          "internalType": "address",
          "name": "spender",
          "type": "address"
        }
      ],
      "name": "allowance",
      "outputs": [
        {
          "internalType": "uint256",
          "name": "",
          "type": "uint256"
        }
      ],
      "stateMutability": "view",
      "type": "function"
    },
    {
      "inputs": [
        {
          "internalType": "address",
          "name": "spender",
          "type": "address"
        },
        {
          "internalType": "uint256",
          "name": "amount",
          "type": "uint256"
        }
      ],
      "name": "approve",
      "outputs": [
        {
          "internalType": "bool",
          "name": "",
          "type": "bool"
        }
      ],
      "stateMutability": "nonpayable",
      "type": "function"
    },
    {
      "inputs": [
        {
          "internalType": "address",
          "name": "account",
          "type": "address"
        }
      ],
      "name": "balanceOf",
      "outputs": [
        {
          "internalType": "uint256",
          "name": "",
          "type": "uint256"
        }
      ],
      "stateMutability": "view",
      "type": "function"
    },
    {
      "inputs": [],
      "name": "decimals",
      "outputs": [
        {
          "internalType": "uint8",
          "name": "",
          "type": "uint8"
        }
      ],
      "stateMutability": "view",
      "type": "function"
    },
    {
      "inputs": [
        {
          "internalType": "address",
          "name": "spender",
          "type": "address"
        },
        {
          "internalType": "uint256",
          "name": "subtractedValue",
          "type": "uint256"
        }
      ],
      "name": "decreaseAllowance",
      "outputs": [
        {
          "internalType": "bool",
          "name": "",
          "type": "bool"
        }
      ],
      "stateMutability": "nonpayable",
      "type": "function"
    },
    {
      "inputs": [],
      "name": "getOwner",
      "outputs": [
        {
          "internalType": "address",
          "name": "",
          "type": "address"
        }
      ],
      "stateMutability": "view",
      "type": "function"
    },
    {
      "inputs": [
        {
          "internalType": "address",
          "name": "spender",
          "type": "address"
        },
        {
          "internalType": "uint256",
          "name": "addedValue",
          "type": "uint256"
        }
      ],
      "name": "increaseAllowance",
      "outputs": [
        {
          "internalType": "bool",
          "name": "",
          "type": "bool"
        }
      ],
      "stateMutability": "nonpayable",
      "type": "function"
    },
    {
      "inputs": [],
      "name": "name",
      "outputs": [
        {
          "internalType": "string",
          "name": "",
          "type": "string"
        }
      ],
      "stateMutability": "view",
      "type": "function"
    },
    {
      "inputs": [],
      "name": "owner",
      "outputs": [
        {
          "internalType": "address",
          "name": "",
          "type": "address"
        }
      ],
      "stateMutability": "view",
      "type": "function"
    },
    {
      "inputs": [],
      "name": "renounceOwnership",
      "outputs": [],
      "stateMutability": "nonpayable",
      "type": "function"
    },
    {
      "inputs": [],
      "name": "symbol",
      "outputs": [
        {
          "internalType": "string",
          "name": "",
          "type": "string"
        }
      ],
      "stateMutability": "view",
      "type": "function"
    },
    {
      "inputs": [],
      "name": "totalSupply",
      "outputs": [
        {
          "internalType": "uint256",
          "name": "",
          "type": "uint256"
        }
      ],
      "stateMutability": "view",
      "type": "function"
    },
    {
      "inputs": [
        {
          "internalType": "address",
          "name": "recipient",
          "type": "address"
        },
        {
          "internalType": "uint256",
          "name": "amount",
          "type": "uint256"
        }
      ],
      "name": "transfer",
      "outputs": [
        {
          "internalType": "bool",
          "name": "",
          "type": "bool"
        }
      ],
      "stateMutability": "nonpayable",
      "type": "function"
    },
    {
      "inputs": [
        {
          "internalType": "address",
          "name": "sender",
          "type": "address"
        },
        {
          "internalType": "address",
          "name": "recipient",
          "type": "address"
        },
        {
          "internalType": "uint256",
          "name": "amount",
          "type": "uint256"
        }
      ],
      "name": "transferFrom",
      "outputs": [
        {
          "internalType": "bool",
          "name": "",
          "type": "bool"
        }
      ],
      "stateMutability": "nonpayable",
      "type": "function"
    },
    {
      "inputs": [
        {
          "internalType": "address",
          "name": "newOwner",
          "type": "address"
        }
      ],
      "name": "transferOwnership",
      "outputs": [],
      "stateMutability": "nonpayable",
      "type": "function"
    }
  ],
  "bytecode": "0x60806040523480156200001157600080fd5b50604080518082018252601781527f4e46542044726f7020706c6174666f726d20546f6b656e0000000000000000006020808301918252835180850190945260048452635045524360e01b908401528151919291620000739160039162000292565b5080516200008990600490602084019062000292565b50506005805460ff19166012179055506000620000a562000118565b60058054610100600160a81b0319166101006001600160a01b03841690810291909117909155604051919250906000907f8be0079c531659141344cd1fd0a4f28419497f9722a3daafe3b4186f6b6457e0908290a35062000112336a52b7d2dcc80cd2e40000006200011c565b6200033e565b3390565b6001600160a01b03821662000178576040805162461bcd60e51b815260206004820152601f60248201527f45524332303a206d696e7420746f20746865207a65726f206164647265737300604482015290519081900360640190fd5b62000186600083836200022b565b620001a2816002546200023060201b620007b41790919060201c565b6002556001600160a01b03821660009081526020818152604090912054620001d5918390620007b462000230821b17901c565b6001600160a01b0383166000818152602081815260408083209490945583518581529351929391927fddf252ad1be2c89b69c2b068fc378daa952ba7f163c4a11628f55a4df523b3ef9281900390910190a35050565b505050565b6000828201838110156200028b576040805162461bcd60e51b815260206004820152601b60248201527f536166654d6174683a206164646974696f6e206f766572666c6f770000000000604482015290519081900360640190fd5b9392505050565b828054600181600116156101000203166002900490600052602060002090601f016020900481019282620002ca576000855562000315565b82601f10620002e557805160ff191683800117855562000315565b8280016001018555821562000315579182015b8281111562000315578251825591602001919060010190620002f8565b506200032392915062000327565b5090565b5b8082111562000323576000815560010162000328565b610ce4806200034e6000396000f3fe608060405234801561001057600080fd5b50600436106100f55760003560e01c8063715018a611610097578063a457c2d711610066578063a457c2d7146102b5578063a9059cbb146102e1578063dd62ed3e1461030d578063f2fde38b1461033b576100f5565b8063715018a614610277578063893d20e8146102815780638da5cb5b146102a557806395d89b41146102ad576100f5565b806323b872dd116100d357806323b872dd146101d1578063313ce56714610207578063395093511461022557806370a0823114610251576100f5565b806306fdde03146100fa578063095ea7b31461017757806318160ddd146101b7575b600080fd5b610102610361565b6040805160208082528351818301528351919283929083019185019080838360005b8381101561013c578181015183820152602001610124565b50505050905090810190601f1680156101695780820380516001836020036101000a031916815260200191505b509250505060405180910390f35b6101a36004803603604081101561018d57600080fd5b506001600160a01b0381351690602001356103f7565b604080519115158252519081900360200190f35b6101bf610414565b60408051918252519081900360200190f35b6101a3600480360360608110156101e757600080fd5b506001600160a01b0381358116916020810135909116906040013561041a565b61020f61042f565b6040805160ff9092168252519081900360200190f35b6101a36004803603604081101561023b57600080fd5b506001600160a01b038135169060200135610438565b6101bf6004803603602081101561026757600080fd5b50356001600160a01b031661048b565b61027f6104a6565b005b61028961056a565b604080516001600160a01b039092168252519081900360200190f35b610289610579565b61010261058d565b6101a3600480360360408110156102cb57600080fd5b506001600160a01b0381351690602001356105ee565b6101a3600480360360408110156102f757600080fd5b506001600160a01b038135169060200135610656565b6101bf6004803603604081101561032357600080fd5b506001600160a01b0381358116916020013516610669565b61027f6004803603602081101561035157600080fd5b50356001600160a01b0316610694565b60038054604080516020601f60026000196101006001881615020190951694909404938401819004810282018101909252828152606093909290918301828280156103ed5780601f106103c2576101008083540402835291602001916103ed565b820191906000526020600020905b8154815290600101906020018083116103d057829003601f168201915b5050505050905090565b600061040b61040461080e565b8484610812565b50600192915050565b60025490565b60006104278484846108fe565b949350505050565b60055460ff1690565b600061040b61044561080e565b84610486856001600061045661080e565b6001600160a01b03908116825260208083019390935260409182016000908120918c1681529252902054906107b4565b610812565b6001600160a01b031660009081526020819052604090205490565b6104ae61080e565b6001600160a01b03166104bf610579565b6001600160a01b03161461051a576040805162461bcd60e51b815260206004820181905260248201527f4f776e61626c653a2063616c6c6572206973206e6f7420746865206f776e6572604482015290519081900360640190fd5b60055460405160009161010090046001600160a01b0316907f8be0079c531659141344cd1fd0a4f28419497f9722a3daafe3b4186f6b6457e0908390a360058054610100600160a81b0319169055565b6000610574610579565b905090565b60055461010090046001600160a01b031690565b60048054604080516020601f60026000196101006001881615020190951694909404938401819004810282018101909252828152606093909290918301828280156103ed5780601f106103c2576101008083540402835291602001916103ed565b600061040b6105fb61080e565b8461048685604051806060016040528060258152602001610c8a602591396001600061062561080e565b6001600160a01b03908116825260208083019390935260409182016000908120918d16815292529020549190610980565b60006106628383610a17565b9392505050565b6001600160a01b03918216600090815260016020908152604080832093909416825291909152205490565b61069c61080e565b6001600160a01b03166106ad610579565b6001600160a01b031614610708576040805162461bcd60e51b815260206004820181905260248201527f4f776e61626c653a2063616c6c6572206973206e6f7420746865206f776e6572604482015290519081900360640190fd5b6001600160a01b03811661074d5760405162461bcd60e51b8152600401808060200182810382526026815260200180610bab6026913960400191505060405180910390fd5b6005546040516001600160a01b0380841692610100900416907f8be0079c531659141344cd1fd0a4f28419497f9722a3daafe3b4186f6b6457e090600090a3600580546001600160a01b0390921661010002610100600160a81b0319909216919091179055565b600082820183811015610662576040805162461bcd60e51b815260206004820152601b60248201527f536166654d6174683a206164646974696f6e206f766572666c6f770000000000604482015290519081900360640190fd5b3390565b6001600160a01b0383166108575760405162461bcd60e51b8152600401808060200182810382526024815260200180610c666024913960400191505060405180910390fd5b6001600160a01b03821661089c5760405162461bcd60e51b8152600401808060200182810382526022815260200180610bd16022913960400191505060405180910390fd5b6001600160a01b03808416600081815260016020908152604080832094871680845294825291829020859055815185815291517f8c5be1e5ebec7d5bd14f71427d1e84f3dd0314c0f7b2291e5b200ac8c7c3b9259281900390910190a3505050565b600061090b848484610a27565b6109768461091761080e565b61048685604051806060016040528060288152602001610c19602891396001600160a01b038a1660009081526001602052604081209061095561080e565b6001600160a01b031681526020810191909152604001600020549190610980565b5060019392505050565b60008184841115610a0f5760405162461bcd60e51b81526004018080602001828103825283818151815260200191508051906020019080838360005b838110156109d45781810151838201526020016109bc565b50505050905090810190601f168015610a015780820380516001836020036101000a031916815260200191505b509250505060405180910390fd5b505050900390565b600061040b610a2461080e565b84845b6001600160a01b038316610a6c5760405162461bcd60e51b8152600401808060200182810382526025815260200180610c416025913960400191505060405180910390fd5b6001600160a01b038216610ab15760405162461bcd60e51b8152600401808060200182810382526023815260200180610b886023913960400191505060405180910390fd5b610abc838383610b82565b610af981604051806060016040528060268152602001610bf3602691396001600160a01b0386166000908152602081905260409020549190610980565b6001600160a01b038085166000908152602081905260408082209390935590841681522054610b2890826107b4565b6001600160a01b038084166000818152602081815260409182902094909455805185815290519193928716927fddf252ad1be2c89b69c2b068fc378daa952ba7f163c4a11628f55a4df523b3ef92918290030190a3505050565b50505056fe45524332303a207472616e7366657220746f20746865207a65726f20616464726573734f776e61626c653a206e6577206f776e657220697320746865207a65726f206164647265737345524332303a20617070726f766520746f20746865207a65726f206164647265737345524332303a207472616e7366657220616d6f756e7420657863656564732062616c616e636545524332303a207472616e7366657220616d6f756e74206578636565647320616c6c6f77616e636545524332303a207472616e736665722066726f6d20746865207a65726f206164647265737345524332303a20617070726f76652066726f6d20746865207a65726f206164647265737345524332303a2064656372656173656420616c6c6f77616e63652062656c6f77207a65726fa264697066735822122076e3b56870b8baaf7c3ede075d87f8766df3690d775e98a1912b39802f5f506a64736f6c63430007060033",
  "linkReferences": {},
  "deployedLinkReferences": {}
}