{
  "_format": "hh-sol-artifact-1",
  "contractName": "BeamStarterLaunchPad",
  "sourceName": "contracts/LaunchpadPool.sol",
  "abi": [
    {
      "inputs": [
        {
          "internalType": "address",
          "name": "_bstr",
          "type": "address"
        },
        {
          "internalType": "address",
          "name": "_reward",
          "type": "address"
        }
      ],
      "stateMutability": "nonpayable",
      "type": "constructor"
    },
    {
      "anonymous": false,
      "inputs": [
        {
          "indexed": true,
          "internalType": "address",
          "name": "tokenAddress",
          "type": "address"
        },
        {
          "indexed": true,
          "internalType": "address",
          "name": "owner",
          "type": "address"
        },
        {
          "indexed": false,
          "internalType": "uint256",
          "name": "value",
          "type": "uint256"
        }
      ],
      "name": "AddPool",
      "type": "event"
    },
    {
      "anonymous": false,
      "inputs": [
        {
          "indexed": true,
          "internalType": "address",
          "name": "tokenAddress",
          "type": "address"
        },
        {
          "indexed": true,
          "internalType": "address",
          "name": "account",
          "type": "address"
        },
        {
          "indexed": false,
          "internalType": "uint256",
          "name": "value",
          "type": "uint256"
        }
      ],
      "name": "Buy",
      "type": "event"
    },
    {
      "anonymous": false,
      "inputs": [
        {
          "indexed": true,
          "internalType": "address",
          "name": "previousOwner",
          "type": "address"
        },
        {
          "indexed": true,
          "internalType": "address",
          "name": "newOwner",
          "type": "address"
        }
      ],
      "name": "OwnershipTransferred",
      "type": "event"
    },
    {
      "anonymous": false,
      "inputs": [
        {
          "indexed": true,
          "internalType": "address",
          "name": "tokenAddress",
          "type": "address"
        },
        {
          "indexed": true,
          "internalType": "address",
          "name": "rewardAddress",
          "type": "address"
        },
        {
          "indexed": false,
          "internalType": "uint256",
          "name": "value",
          "type": "uint256"
        }
      ],
      "name": "Withdraw",
      "type": "event"
    },
    {
      "inputs": [],
      "name": "NAME",
      "outputs": [
        {
          "internalType": "string",
          "name": "",
          "type": "string"
        }
      ],
      "stateMutability": "view",
      "type": "function"
    },
    {
      "inputs": [
        {
          "internalType": "address",
          "name": "_tokenAddress",
          "type": "address"
        },
        {
          "internalType": "address",
          "name": "_receiveToken",
          "type": "address"
        },
        {
          "internalType": "address",
          "name": "_receiveWallet",
          "type": "address"
        },
        {
          "internalType": "uint256",
          "name": "_startTime",
          "type": "uint256"
        },
        {
          "internalType": "uint256",
          "name": "_endTime",
          "type": "uint256"
        },
        {
          "internalType": "uint256",
          "name": "_minPurchase",
          "type": "uint256"
        },
        {
          "internalType": "uint256",
          "name": "_maxPurchase",
          "type": "uint256"
        },
        {
          "internalType": "uint256",
          "name": "_totalToken",
          "type": "uint256"
        },
        {
          "internalType": "uint256",
          "name": "_price",
          "type": "uint256"
        },
        {
          "internalType": "uint256",
          "name": "_tier",
          "type": "uint256"
        }
      ],
      "name": "addPool",
      "outputs": [],
      "stateMutability": "nonpayable",
      "type": "function"
    },
    {
      "inputs": [],
      "name": "bstr",
      "outputs": [
        {
          "internalType": "address",
          "name": "",
          "type": "address"
        }
      ],
      "stateMutability": "view",
      "type": "function"
    },
    {
      "inputs": [
        {
          "internalType": "address",
          "name": "_token",
          "type": "address"
        },
        {
          "internalType": "uint256",
          "name": "_quantity",
          "type": "uint256"
        }
      ],
      "name": "buy",
      "outputs": [],
      "stateMutability": "payable",
      "type": "function"
    },
    {
      "inputs": [
        {
          "internalType": "address",
          "name": "_token",
          "type": "address"
        }
      ],
      "name": "getPoolInfo",
      "outputs": [
        {
          "components": [
            {
              "internalType": "address",
              "name": "tokenOwner",
              "type": "address"
            },
            {
              "internalType": "address",
              "name": "tokenAddress",
              "type": "address"
            },
            {
              "internalType": "address",
              "name": "receiveToken",
              "type": "address"
            },
            {
              "internalType": "address",
              "name": "receiveWallet",
              "type": "address"
            },
            {
              "internalType": "uint256",
              "name": "startTime",
              "type": "uint256"
            },
            {
              "internalType": "uint256",
              "name": "endTime",
              "type": "uint256"
            },
            {
              "internalType": "uint256",
              "name": "closeTime",
              "type": "uint256"
            },
            {
              "internalType": "uint256",
              "name": "minPurchase",
              "type": "uint256"
            },
            {
              "internalType": "uint256",
              "name": "maxPurchase",
              "type": "uint256"
            },
            {
              "internalType": "uint256",
              "name": "totalToken",
              "type": "uint256"
            },
            {
              "internalType": "uint256",
              "name": "totalSold",
              "type": "uint256"
            },
            {
              "internalType": "uint256",
              "name": "price",
              "type": "uint256"
            },
            {
              "internalType": "uint256",
              "name": "tier",
              "type": "uint256"
            },
            {
              "internalType": "uint256",
              "name": "withdrawTime",
              "type": "uint256"
            }
          ],
          "internalType": "struct BeamStarterLaunchPad.IDOPool",
          "name": "",
          "type": "tuple"
        }
      ],
      "stateMutability": "view",
      "type": "function"
    },
    {
      "inputs": [
        {
          "internalType": "address",
          "name": "_token",
          "type": "address"
        }
      ],
      "name": "getRemainToken",
      "outputs": [
        {
          "internalType": "uint256",
          "name": "",
          "type": "uint256"
        }
      ],
      "stateMutability": "view",
      "type": "function"
    },
    {
      "inputs": [
        {
          "internalType": "address",
          "name": "_token",
          "type": "address"
        }
      ],
      "name": "getTokenActiveStatus",
      "outputs": [
        {
          "internalType": "uint256",
          "name": "",
          "type": "uint256"
        }
      ],
      "stateMutability": "view",
      "type": "function"
    },
    {
      "inputs": [
        {
          "internalType": "address",
          "name": "_token",
          "type": "address"
        }
      ],
      "name": "getTotalSold",
      "outputs": [
        {
          "internalType": "uint256",
          "name": "",
          "type": "uint256"
        }
      ],
      "stateMutability": "view",
      "type": "function"
    },
    {
      "inputs": [
        {
          "internalType": "address",
          "name": "_token",
          "type": "address"
        }
      ],
      "name": "getTotalSupply",
      "outputs": [
        {
          "internalType": "uint256",
          "name": "",
          "type": "uint256"
        }
      ],
      "stateMutability": "view",
      "type": "function"
    },
    {
      "inputs": [
        {
          "internalType": "address",
          "name": "_token",
          "type": "address"
        }
      ],
      "name": "isActivated",
      "outputs": [
        {
          "internalType": "bool",
          "name": "",
          "type": "bool"
        }
      ],
      "stateMutability": "view",
      "type": "function"
    },
    {
      "inputs": [
        {
          "internalType": "address",
          "name": "_token",
          "type": "address"
        }
      ],
      "name": "isClosed",
      "outputs": [
        {
          "internalType": "bool",
          "name": "",
          "type": "bool"
        }
      ],
      "stateMutability": "view",
      "type": "function"
    },
    {
      "inputs": [],
      "name": "owner",
      "outputs": [
        {
          "internalType": "address",
          "name": "",
          "type": "address"
        }
      ],
      "stateMutability": "view",
      "type": "function"
    },
    {
      "inputs": [],
      "name": "renounceOwnership",
      "outputs": [],
      "stateMutability": "nonpayable",
      "type": "function"
    },
    {
      "inputs": [],
      "name": "rewardWallet",
      "outputs": [
        {
          "internalType": "address",
          "name": "",
          "type": "address"
        }
      ],
      "stateMutability": "view",
      "type": "function"
    },
    {
      "inputs": [
        {
          "internalType": "address",
          "name": "newOwner",
          "type": "address"
        }
      ],
      "name": "transferOwnership",
      "outputs": [],
      "stateMutability": "nonpayable",
      "type": "function"
    },
    {
      "inputs": [
        {
          "internalType": "address",
          "name": "_token",
          "type": "address"
        }
      ],
      "name": "withdraw",
      "outputs": [],
      "stateMutability": "payable",
      "type": "function"
    },
    {
      "stateMutability": "payable",
      "type": "receive"
    }
  ],
  "bytecode": "0x61014060405268056bc75e2d6310000060c0908152680ad78ebc5ac620000060e052681043561a8829300000610100526815af1d78b58c400000610120526200004d90600290600462000141565b503480156200005b57600080fd5b506040516200212c3803806200212c8339810160408190526200007e9162000246565b60006200008a6200013d565b600080546001600160a01b0319166001600160a01b0383169081178255604051929350917f8be0079c531659141344cd1fd0a4f28419497f9722a3daafe3b4186f6b6457e0908290a3506001600160601b0319606083811b821660805282901b1660a0526040805180820190915260168082527f4265616d537461727465723a204c61756e636850616400000000000000000000602090920191825262000134916001916200018f565b5050506200027d565b3390565b82600481019282156200017d579160200282015b828111156200017d57825182906001600160481b031690559160200191906001019062000155565b506200018b92915062000212565b5090565b828054600181600116156101000203166002900490600052602060002090601f016020900481019282620001c757600085556200017d565b82601f10620001e257805160ff19168380011785556200017d565b828001600101855582156200017d579182015b828111156200017d578251825591602001919060010190620001f5565b5b808211156200018b576000815560010162000213565b80516001600160a01b03811681146200024157600080fd5b919050565b6000806040838503121562000259578182fd5b620002648362000229565b9150620002746020840162000229565b90509250929050565b60805160601c60a05160601c611e76620002b66000398061094752806109ad52806112a752508061049452806106fc5250611e766000f3fe6080604052600436106100f75760003560e01c80638da5cb5b1161008a578063cce7ec1311610059578063cce7ec1314610296578063cebe5721146102a9578063f2fde38b146102c9578063fb75b2c7146102e9576100fe565b80638da5cb5b1461021f578063a3f4df7e14610234578063aca7376d14610256578063c9faa7c514610276576100fe565b806368da10ae116100c657806368da10ae146101905780636943b017146101bd578063715018a6146101ea57806389b31277146101ff576100fe565b806306bfa938146101035780632037f35314610139578063514149671461015b57806351cff8d91461017d576100fe565b366100fe57005b600080fd5b34801561010f57600080fd5b5061012361011e3660046116f3565b6102fe565b6040516101309190611d4d565b60405180910390f35b34801561014557600080fd5b5061015961015436600461170d565b6103c9565b005b34801561016757600080fd5b506101706106fa565b6040516101309190611826565b61015961018b3660046116f3565b61071e565b34801561019c57600080fd5b506101b06101ab3660046116f3565b610a2e565b6040516101309190611e0b565b3480156101c957600080fd5b506101dd6101d83660046116f3565b610af5565b6040516101309190611877565b3480156101f657600080fd5b50610159610b3f565b34801561020b57600080fd5b506101b061021a3660046116f3565b610bc8565b34801561022b57600080fd5b50610170610bfc565b34801561024057600080fd5b50610249610c0b565b6040516101309190611882565b34801561026257600080fd5b506101b06102713660046116f3565b610c98565b34801561028257600080fd5b506101dd6102913660046116f3565b610d5f565b6101596102a4366004611790565b610dcd565b3480156102b557600080fd5b506101b06102c43660046116f3565b6110b7565b3480156102d557600080fd5b506101596102e43660046116f3565b6111e5565b3480156102f557600080fd5b506101706112a5565b610306611649565b506001600160a01b0380821660009081526006602081815260409283902083516101c081018552815486168152600182015486169281019290925260028101548516938201939093526003830154909316606084015260048201546080840152600582015460a084015281015460c0830152600781015460e083015260088101546101008301526009810154610120830152600a810154610140830152600b810154610160830152600c810154610180830152600d01546101a08201525b919050565b6001600160a01b038a166103f85760405162461bcd60e51b81526004016103ef906118b5565b60405180910390fd5b6001600160a01b03881661041e5760405162461bcd60e51b81526004016103ef90611d16565b6104278a6112c9565b6104435760405162461bcd60e51b81526004016103ef90611bc4565b60018110158015610455575060048111155b6104715760405162461bcd60e51b81526004016103ef90611c30565b60006002600183036004811061048357fe5b015490506104bc6001600160a01b037f0000000000000000000000000000000000000000000000000000000000000000163330846112cf565b6104d16001600160a01b038c163330876112cf565b6000604051806101c00160405280336001600160a01b031681526020018d6001600160a01b031681526020018c6001600160a01b031681526020018b6001600160a01b031681526020018a815260200189815260200160008152602001888152602001878152602001868152602001600081526020018581526020018481526020016000815250905080600660008e6001600160a01b03166001600160a01b0316815260200190815260200160002060008201518160000160006101000a8154816001600160a01b0302191690836001600160a01b0316021790555060208201518160010160006101000a8154816001600160a01b0302191690836001600160a01b0316021790555060408201518160020160006101000a8154816001600160a01b0302191690836001600160a01b0316021790555060608201518160030160006101000a8154816001600160a01b0302191690836001600160a01b031602179055506080820151816004015560a0820151816005015560c0820151816006015560e082015181600701556101008201518160080155610120820151816009015561014082015181600a015561016082015181600b015561018082015181600c01556101a082015181600d0155905050336001600160a01b03168c6001600160a01b03167f416e69377d260eeed377d9a98a9bc5e0da69b0b78801392c1ee34367704cfcb0876040516106e49190611e0b565b60405180910390a3505050505050505050505050565b7f000000000000000000000000000000000000000000000000000000000000000081565b6001600160a01b0380821660009081526006602081815260409283902083516101c081018552815486168152600182015486169281019290925260028101548516938201939093526003830154909316606084015260048201546080840152600582015460a084015281015460c0830152600781015460e083015260088101546101008301526009810154610120830152600a810154610140830152600b810154610160830152600c810154610180830152600d01546101a08201526107e382610af5565b6107ff5760405162461bcd60e51b81526004016103ef90611ce8565b6101a0810151156108225760405162461bcd60e51b81526004016103ef906118ec565b80516001600160a01b0316331461084b5760405162461bcd60e51b81526004016103ef90611ae8565b6000826001600160a01b031663313ce5676040518163ffffffff1660e01b815260040160206040518083038186803b15801561088657600080fd5b505afa15801561089a573d6000803e3d6000fd5b505050506040513d601f19601f820116820180604052508101906108be91906117d9565b60ff16905060006108ef82600a0a6108e985610160015186610140015161132d90919063ffffffff16565b90611367565b905060006109056127106108e9846103e861132d565b6001600160a01b038087166000908152600660205260409081902042600d9091015586015191925016610971576109428460600151828403611399565b61096c7f000000000000000000000000000000000000000000000000000000000000000082611399565b6109d2565b610999846060015182840386604001516001600160a01b031661143a9092919063ffffffff16565b60408401516109d2906001600160a01b03167f00000000000000000000000000000000000000000000000000000000000000008361143a565b83606001516001600160a01b031684602001516001600160a01b03167f9b1bfa7fa9ee420a16e124f794c35ac9f90472acc99140eb2f6447c714cad8eb838503604051610a1f9190611e0b565b60405180910390a35050505050565b6001600160a01b0390811660009081526006602081815260409283902083516101c081018552815486168152600182015486169281019290925260028101548516938201939093526003830154909316606084015260048201546080840152600582015460a084015281015460c0830152600781015460e0830152600881015461010083015260098101546101208301819052600a820154610140840152600b820154610160840152600c820154610180840152600d909101546101a09092019190915290565b6001600160a01b038116600090815260066020526040812060050154421180610b3957506001600160a01b0382166000908152600660208190526040909120015415155b92915050565b610b47611459565b6001600160a01b0316610b58610bfc565b6001600160a01b031614610b7e5760405162461bcd60e51b81526004016103ef90611bfb565b600080546040516001600160a01b03909116907f8be0079c531659141344cd1fd0a4f28419497f9722a3daafe3b4186f6b6457e0908390a3600080546001600160a01b0319169055565b6001600160a01b0381166000908152600660205260408120600a810154600990910154610bf5908261145d565b9392505050565b6000546001600160a01b031690565b60018054604080516020600284861615610100026000190190941693909304601f81018490048402820184019092528181529291830182828015610c905780601f10610c6557610100808354040283529160200191610c90565b820191906000526020600020905b815481529060010190602001808311610c7357829003601f168201915b505050505081565b6001600160a01b0390811660009081526006602081815260409283902083516101c081018552815486168152600182015486169281019290925260028101548516938201939093526003830154909316606084015260048201546080840152600582015460a084015281015460c0830152600781015460e083015260088101546101008301526009810154610120830152600a8101546101408301819052600b820154610160840152600c820154610180840152600d909101546101a09092019190915290565b6001600160a01b0381166000908152600660205260408120600401544210801590610da557506001600160a01b0382166000908152600660205260409020600501544211155b8015610b395750506001600160a01b0316600090815260066020819052604090912001541590565b610dd682610d5f565b610df25760405162461bcd60e51b81526004016103ef90611b15565b6001600160a01b03808316600090815260066020818152604080842081516101c081018352815487168152600182015487169381019390935260028101548616918301919091526003810154909416606082015260048401546080820152600584015460a08201529083015460c0820152600783015460e082015260088301546101008201526009830154610120820152600a830154610140820152600b830154610160820152600c830154610180820152600d909201546101a08301524290610ebb85610bc8565b9050600080866001600160a01b031663313ce5676040518163ffffffff1660e01b815260040160206040518083038186803b158015610ef957600080fd5b505afa158015610f0d573d6000803e3d6000fd5b505050506040513d601f19601f82011682018060405250810190610f3191906117d9565b60ff1690508460e0015183111580610f495750858311155b15610f77576001600160a01b0387166000908152600660208190526040909120018490559194508491600191505b8180610f9757508460e001518610158015610f9757508461010001518611155b156110ae57610140850151610fac9087611485565b60066000896001600160a01b03166001600160a01b03168152602001908152602001600020600a01819055506000610ff982600a0a6108e98861016001518a61132d90919063ffffffff16565b60408701519091506001600160a01b0316611033578034101561102e5760405162461bcd60e51b81526004016103ef90611b4c565b61104d565b604086015161104d906001600160a01b03163330846112cf565b6110616001600160a01b038916338961143a565b336001600160a01b0316886001600160a01b03167fd0c183be209f70036b50de16805d88249019e1288d7b77ef877710999c0d08e6896040516110a49190611e0b565b60405180910390a3505b50505050505050565b6001600160a01b03808216600090815260066020818152604080842081516101c0810183528154871681526001820154871693810193909352600281015486169183019190915260038101549094166060820152600484015460808201819052600585015460a08301529184015460c0820152600784015460e082015260088401546101008201526009840154610120820152600a840154610140820152600b840154610160820152600c840154610180820152600d909301546101a0840152909190429081101561118e576001925050506103c4565b816080015181101580156111a657508160a001518111155b80156111b4575060c0820151155b156111c4576002925050506103c4565b8160c001518111156111db576003925050506103c4565b5060049392505050565b6111ed611459565b6001600160a01b03166111fe610bfc565b6001600160a01b0316146112245760405162461bcd60e51b81526004016103ef90611bfb565b6001600160a01b03811661124a5760405162461bcd60e51b81526004016103ef90611923565b600080546040516001600160a01b03808516939216917f8be0079c531659141344cd1fd0a4f28419497f9722a3daafe3b4186f6b6457e091a3600080546001600160a01b0319166001600160a01b0392909216919091179055565b7f000000000000000000000000000000000000000000000000000000000000000081565b3b151590565b611327846323b872dd60e01b8585856040516024016112f09392919061183a565b60408051601f198184030181529190526020810180516001600160e01b03166001600160e01b0319909316929092179091526114aa565b50505050565b60008261133c57506000610b39565b8282028284828161134957fe5b0414610bf55760405162461bcd60e51b81526004016103ef90611b83565b60008082116113885760405162461bcd60e51b81526004016103ef90611ab1565b81838161139157fe5b049392505050565b804710156113b95760405162461bcd60e51b81526004016103ef90611a34565b6000826001600160a01b0316826040516113d290611823565b60006040518083038185875af1925050503d806000811461140f576040519150601f19603f3d011682016040523d82523d6000602084013e611414565b606091505b50509050806114355760405162461bcd60e51b81526004016103ef906119d7565b505050565b6114358363a9059cbb60e01b84846040516024016112f092919061185e565b3390565b60008282111561147f5760405162461bcd60e51b81526004016103ef906119a0565b50900390565b600082820183811015610bf55760405162461bcd60e51b81526004016103ef90611969565b60006114ff826040518060400160405280602081526020017f5361666545524332303a206c6f772d6c6576656c2063616c6c206661696c6564815250856001600160a01b03166115399092919063ffffffff16565b805190915015611435578080602001905181019061151d91906117b9565b6114355760405162461bcd60e51b81526004016103ef90611c9e565b60606115488484600085611550565b949350505050565b6060824710156115725760405162461bcd60e51b81526004016103ef90611a6b565b61157b856112c9565b6115975760405162461bcd60e51b81526004016103ef90611c67565b600080866001600160a01b031685876040516115b39190611807565b60006040518083038185875af1925050503d80600081146115f0576040519150601f19603f3d011682016040523d82523d6000602084013e6115f5565b606091505b5091509150611605828286611610565b979650505050505050565b6060831561161f575081610bf5565b82511561162f5782518084602001fd5b8160405162461bcd60e51b81526004016103ef9190611882565b604051806101c0016040528060006001600160a01b0316815260200160006001600160a01b0316815260200160006001600160a01b0316815260200160006001600160a01b03168152602001600081526020016000815260200160008152602001600081526020016000815260200160008152602001600081526020016000815260200160008152602001600081525090565b80356001600160a01b03811681146103c457600080fd5b600060208284031215611704578081fd5b610bf5826116dc565b6000806000806000806000806000806101408b8d03121561172c578586fd5b6117358b6116dc565b995061174360208c016116dc565b985061175160408c016116dc565b999c989b5098996060810135995060808101359860a0820135985060c0820135975060e082013596506101008201359550610120909101359350915050565b600080604083850312156117a2578182fd5b6117ab836116dc565b946020939093013593505050565b6000602082840312156117ca578081fd5b81518015158114610bf5578182fd5b6000602082840312156117ea578081fd5b815160ff81168114610bf5578182fd5b6001600160a01b03169052565b60008251611819818460208701611e14565b9190910192915050565b90565b6001600160a01b0391909116815260200190565b6001600160a01b039384168152919092166020820152604081019190915260600190565b6001600160a01b03929092168252602082015260400190565b901515815260200190565b60006020825282518060208401526118a1816040850160208701611e14565b601f01601f19169190910160400192915050565b6020808252601a908201527f506f6f6c3a20746f6b656e41646472657373206973207a65726f000000000000604082015260600190565b60208082526019908201527f506f6f6c733a20616c7265616479207769746864726177656400000000000000604082015260600190565b60208082526026908201527f4f776e61626c653a206e6577206f776e657220697320746865207a65726f206160408201526564647265737360d01b606082015260800190565b6020808252601b908201527f536166654d6174683a206164646974696f6e206f766572666c6f770000000000604082015260600190565b6020808252601e908201527f536166654d6174683a207375627472616374696f6e206f766572666c6f770000604082015260600190565b6020808252603a908201527f416464726573733a20756e61626c6520746f2073656e642076616c75652c207260408201527f6563697069656e74206d61792068617665207265766572746564000000000000606082015260800190565b6020808252601d908201527f416464726573733a20696e73756666696369656e742062616c616e6365000000604082015260600190565b60208082526026908201527f416464726573733a20696e73756666696369656e742062616c616e636520666f6040820152651c8818d85b1b60d21b606082015260800190565b6020808252601a908201527f536166654d6174683a206469766973696f6e206279207a65726f000000000000604082015260600190565b6020808252601390820152722837b7b6399d1034b9903737ba1037bbb732b960691b604082015260600190565b6020808252601c908201527f506f6f6c733a206e6f742073746172746564206f7220636c6f73656400000000604082015260600190565b60208082526017908201527f506f6f6c733a206e6f7420656e6f7567682076616c7565000000000000000000604082015260600190565b60208082526021908201527f536166654d6174683a206d756c7469706c69636174696f6e206f766572666c6f6040820152607760f81b606082015260800190565b6020808252601f908201527f506f6f6c3a20746f6b656e41646472657373206973206e6f7420455243323000604082015260600190565b6020808252818101527f4f776e61626c653a2063616c6c6572206973206e6f7420746865206f776e6572604082015260600190565b6020808252601a908201527f506f6f6c3a20746965722073686f756c642062652031207e2034000000000000604082015260600190565b6020808252601d908201527f416464726573733a2063616c6c20746f206e6f6e2d636f6e7472616374000000604082015260600190565b6020808252602a908201527f5361666545524332303a204552433230206f7065726174696f6e20646964206e6040820152691bdd081cdd58d8d9595960b21b606082015260800190565b602080825260149082015273141bdbdb1cce881a5cc81b9bdd0818db1bdcd95960621b604082015260600190565b6020808252601b908201527f506f6f6c3a207265636569766557616c6c6574206973207a65726f0000000000604082015260600190565b60006101c082019050611d618284516117fa565b6020830151611d7360208401826117fa565b506040830151611d8660408401826117fa565b506060830151611d9960608401826117fa565b506080838101519083015260a0808401519083015260c0808401519083015260e08084015190830152610100808401519083015261012080840151908301526101408084015190830152610160808401519083015261018080840151908301526101a092830151929091019190915290565b90815260200190565b60005b83811015611e2f578181015183820152602001611e17565b83811115611327575050600091015256fea2646970667358221220e4505e695b47e96b029ce1a322e84f6df86351abe2ed6f54073a22b61b09b41b64736f6c63430007060033",
  "linkReferences": {},
  "deployedLinkReferences": {}
}